{
  "address": "0x19ed2877F831d49A6D4a4B7a99ce3ab814331049",
  "abi": [
    {
      "inputs": [
        {
          "internalType": "uint256",
          "name": "fee",
          "type": "uint256"
        },
        {
          "internalType": "address",
          "name": "_a",
          "type": "address"
        },
        {
          "internalType": "address",
          "name": "_d",
          "type": "address"
        }
      ],
      "stateMutability": "nonpayable",
      "type": "constructor"
    },
    {
      "anonymous": false,
      "inputs": [
        {
          "indexed": true,
          "internalType": "address",
          "name": "user",
          "type": "address"
        },
        {
          "indexed": false,
          "internalType": "uint256",
          "name": "damageFactor",
          "type": "uint256"
        },
        {
          "indexed": false,
          "internalType": "bool",
          "name": "approved",
          "type": "bool"
        }
      ],
      "name": "ClaimReviewed",
      "type": "event"
    },
    {
      "anonymous": false,
      "inputs": [
        {
          "indexed": true,
          "internalType": "address",
          "name": "user",
          "type": "address"
        },
        {
          "indexed": false,
          "internalType": "uint256",
          "name": "amount",
          "type": "uint256"
        }
      ],
      "name": "InsuranceClaimed",
      "type": "event"
    },
    {
      "anonymous": false,
      "inputs": [
        {
          "indexed": true,
          "internalType": "address",
          "name": "user",
          "type": "address"
        },
        {
          "indexed": false,
          "internalType": "uint256",
          "name": "value",
          "type": "uint256"
        },
        {
          "indexed": false,
          "internalType": "uint256",
          "name": "deadline",
          "type": "uint256"
        }
      ],
      "name": "InsuranceCreated",
      "type": "event"
    },
    {
      "anonymous": false,
      "inputs": [
        {
          "indexed": true,
          "internalType": "address",
          "name": "user",
          "type": "address"
        },
        {
          "indexed": false,
          "internalType": "uint256",
          "name": "amount",
          "type": "uint256"
        },
        {
          "indexed": false,
          "internalType": "uint256",
          "name": "totalPaid",
          "type": "uint256"
        }
      ],
      "name": "PremiumPaid",
      "type": "event"
    },
    {
      "inputs": [],
      "name": "DAO",
      "outputs": [
        {
          "internalType": "contract InsuranceDAO",
          "name": "",
          "type": "address"
        }
      ],
      "stateMutability": "view",
      "type": "function"
    },
    {
      "inputs": [],
      "name": "FEE",
      "outputs": [
        {
          "internalType": "uint256",
          "name": "",
          "type": "uint256"
        }
      ],
      "stateMutability": "view",
      "type": "function"
    },
    {
      "inputs": [
        {
          "internalType": "uint256",
          "name": "damageFactor",
          "type": "uint256"
        }
      ],
      "name": "claimInsurance",
      "outputs": [],
      "stateMutability": "payable",
      "type": "function"
    },
    {
      "inputs": [
        {
          "internalType": "uint256",
          "name": "value",
          "type": "uint256"
        },
        {
          "internalType": "uint256",
          "name": "deadline",
          "type": "uint256"
        },
        {
          "internalType": "uint256",
          "name": "paymentFreq",
          "type": "uint256"
        }
      ],
      "name": "createInsurance",
      "outputs": [],
      "stateMutability": "payable",
      "type": "function"
    },
    {
      "inputs": [],
      "name": "getClaimValue",
      "outputs": [
        {
          "internalType": "uint256",
          "name": "",
          "type": "uint256"
        }
      ],
      "stateMutability": "view",
      "type": "function"
    },
    {
      "inputs": [],
      "name": "getResultOfRejectedClaims",
      "outputs": [],
      "stateMutability": "nonpayable",
      "type": "function"
    },
    {
      "inputs": [
        {
          "internalType": "address",
          "name": "",
          "type": "address"
        }
      ],
      "name": "insurances",
      "outputs": [
        {
          "internalType": "bool",
          "name": "isOpen",
          "type": "bool"
        },
        {
          "internalType": "uint256",
          "name": "value",
          "type": "uint256"
        },
        {
          "internalType": "uint256",
          "name": "deadline",
          "type": "uint256"
        },
        {
          "internalType": "uint256",
          "name": "paymentFreq",
          "type": "uint256"
        },
        {
          "internalType": "uint256",
          "name": "totalPremiumPaid",
          "type": "uint256"
        },
        {
          "internalType": "uint256",
          "name": "totalPaymentPending",
          "type": "uint256"
        },
        {
          "internalType": "uint256",
          "name": "timesPaid",
          "type": "uint256"
        },
        {
          "internalType": "uint256",
          "name": "damageFactor",
          "type": "uint256"
        },
        {
          "internalType": "bool",
          "name": "claimApproved",
          "type": "bool"
        },
        {
          "internalType": "bool",
          "name": "isRejected",
          "type": "bool"
        },
        {
          "internalType": "bool",
          "name": "hasNFT",
          "type": "bool"
        },
        {
          "internalType": "uint256",
          "name": "premium",
          "type": "uint256"
        }
      ],
      "stateMutability": "view",
      "type": "function"
    },
    {
      "inputs": [],
      "name": "master",
      "outputs": [
        {
          "internalType": "contract masterContract",
          "name": "",
          "type": "address"
        }
      ],
      "stateMutability": "view",
      "type": "function"
    },
    {
      "inputs": [],
      "name": "owner",
      "outputs": [
        {
          "internalType": "address",
          "name": "",
          "type": "address"
        }
      ],
      "stateMutability": "view",
      "type": "function"
    },
    {
      "inputs": [],
      "name": "payPremium",
      "outputs": [],
      "stateMutability": "payable",
      "type": "function"
    },
    {
      "inputs": [],
      "name": "paymentRemaining",
      "outputs": [
        {
          "internalType": "uint256",
          "name": "",
          "type": "uint256"
        }
      ],
      "stateMutability": "view",
      "type": "function"
    },
    {
      "inputs": [],
      "name": "premiumRemaining",
      "outputs": [
        {
          "internalType": "uint256",
          "name": "",
          "type": "uint256"
        }
      ],
      "stateMutability": "view",
      "type": "function"
    },
    {
      "inputs": [],
      "name": "recieveFund",
      "outputs": [],
      "stateMutability": "payable",
      "type": "function"
    },
    {
      "inputs": [
        {
          "internalType": "string",
          "name": "name",
          "type": "string"
        }
      ],
      "name": "registerUser",
      "outputs": [],
      "stateMutability": "nonpayable",
      "type": "function"
    },
    {
      "inputs": [
        {
          "internalType": "string",
          "name": "description",
          "type": "string"
        },
        {
          "internalType": "uint256",
          "name": "_insuranceType",
          "type": "uint256"
        },
        {
          "internalType": "uint256",
          "name": "_amountToBeSetteled",
          "type": "uint256"
        }
      ],
      "name": "rejectClaim",
      "outputs": [],
      "stateMutability": "payable",
      "type": "function"
    },
    {
      "inputs": [
        {
          "internalType": "address",
          "name": "user",
          "type": "address"
        },
        {
          "internalType": "uint256",
          "name": "damageFactor",
          "type": "uint256"
        }
      ],
      "name": "setDamageFactor",
      "outputs": [],
      "stateMutability": "nonpayable",
      "type": "function"
    },
    {
      "inputs": [],
      "name": "timesRemainingToPay",
      "outputs": [
        {
          "internalType": "uint256",
          "name": "",
          "type": "uint256"
        }
      ],
      "stateMutability": "view",
      "type": "function"
    },
    {
      "inputs": [],
      "name": "totalFund",
      "outputs": [
        {
          "internalType": "uint256",
          "name": "",
          "type": "uint256"
        }
      ],
      "stateMutability": "view",
      "type": "function"
    },
    {
      "inputs": [
        {
          "internalType": "address",
          "name": "",
          "type": "address"
        }
      ],
      "name": "users",
      "outputs": [
        {
          "internalType": "address",
          "name": "user",
          "type": "address"
        },
        {
          "internalType": "string",
          "name": "name",
          "type": "string"
        }
      ],
      "stateMutability": "view",
      "type": "function"
    }
  ],
  "transactionHash": "0x27d217b3f2e166fb297381165ce541f1d685c87ff082808352b62e854c0eca90",
  "args": [
    "100000000000000000",
    "0x1c62B148b3fF74655503568f7321420a12c85772",
    "0x27482e9773c7095b3C2afFc072eEB81080A00510"
  ],
  "numDeployments": 2,
  "solcInputHash": "648d762dac1317b368c5b6b04ba7d3aa",
  "bytecode": "0x60a060405234801561001057600080fd5b50604051613355380380613355833981810160405281019061003291906101a6565b6001600081905550826080818152505081600660006101000a81548173ffffffffffffffffffffffffffffffffffffffff021916908373ffffffffffffffffffffffffffffffffffffffff16021790555080600560006101000a81548173ffffffffffffffffffffffffffffffffffffffff021916908373ffffffffffffffffffffffffffffffffffffffff16021790555033600160006101000a81548173ffffffffffffffffffffffffffffffffffffffff021916908373ffffffffffffffffffffffffffffffffffffffff1602179055505050506101f9565b600080fd5b6000819050919050565b61012581610112565b811461013057600080fd5b50565b6000815190506101428161011c565b92915050565b600073ffffffffffffffffffffffffffffffffffffffff82169050919050565b600061017382610148565b9050919050565b61018381610168565b811461018e57600080fd5b50565b6000815190506101a08161017a565b92915050565b6000806000606084860312156101bf576101be61010d565b5b60006101cd86828701610133565b93505060206101de86828701610191565b92505060406101ef86828701610191565b9150509250925092565b60805161313a61021b600039600081816114e201526115d7015261313a6000f3fe6080604052600436106101145760003560e01c8063704f1b94116100a0578063a87430ba11610064578063a87430ba14610327578063c57981b514610365578063ee4494c314610390578063ee97f7f3146103ac578063f85920d8146103d757610114565b8063704f1b9414610252578063841c36141461027b5780638da5cb5b146102a657806393334b7f146102d157806398fabd3a146102fc57610114565b806330b3fc58116100e757806330b3fc58146101bf5780633dc4838a146101d65780633e65fcc41461020157806346314ba21461022c5780635ea611da1461024857610114565b80630ddb34e414610119578063100aca471461014257806327bae60a1461016d57806329c08ba2146101b5575b600080fd5b34801561012557600080fd5b50610140600480360381019061013b9190611f94565b6103f3565b005b34801561014e57600080fd5b5061015761064a565b6040516101649190611fe3565b60405180910390f35b34801561017957600080fd5b50610194600480360381019061018f9190611ffe565b610650565b6040516101ac9c9b9a99989796959493929190612046565b60405180910390f35b6101bd6106e4565b005b3480156101cb57600080fd5b506101d4610a02565b005b3480156101e257600080fd5b506101eb610e73565b6040516101f89190611fe3565b60405180910390f35b34801561020d57600080fd5b50610216610ec2565b6040516102239190611fe3565b60405180910390f35b61024660048036038101906102419190612246565b610f11565b005b610250611159565b005b34801561025e57600080fd5b50610279600480360381019061027491906122b5565b6111c7565b005b34801561028757600080fd5b50610290611365565b60405161029d9190611fe3565b60405180910390f35b3480156102b257600080fd5b506102bb61136a565b6040516102c8919061230d565b60405180910390f35b3480156102dd57600080fd5b506102e6611390565b6040516102f39190611fe3565b60405180910390f35b34801561030857600080fd5b506103116113ee565b60405161031e9190612387565b60405180910390f35b34801561033357600080fd5b5061034e60048036038101906103499190611ffe565b611414565b60405161035c929190612421565b60405180910390f35b34801561037157600080fd5b5061037a6114e0565b6040516103879190611fe3565b60405180910390f35b6103aa60048036038101906103a59190612451565b611504565b005b3480156103b857600080fd5b506103c1611895565b6040516103ce91906124c5565b60405180910390f35b6103f160048036038101906103ec91906124e0565b6118bb565b005b600073ffffffffffffffffffffffffffffffffffffffff16600360003373ffffffffffffffffffffffffffffffffffffffff1673ffffffffffffffffffffffffffffffffffffffff16815260200190815260200160002060000160009054906101000a900473ffffffffffffffffffffffffffffffffffffffff1673ffffffffffffffffffffffffffffffffffffffff16036104c4576040517f08c379a00000000000000000000000000000000000000000000000000000000081526004016104bb90612559565b60405180910390fd5b600460008373ffffffffffffffffffffffffffffffffffffffff1673ffffffffffffffffffffffffffffffffffffffff16815260200190815260200160002060000160009054906101000a900460ff16610553576040517f08c379a000000000000000000000000000000000000000000000000000000000815260040161054a906125eb565b60405180910390fd5b60008110158015610565575060648111155b6105a4576040517f08c379a000000000000000000000000000000000000000000000000000000000815260040161059b90612657565b60405180910390fd5b80600460008473ffffffffffffffffffffffffffffffffffffffff1673ffffffffffffffffffffffffffffffffffffffff168152602001908152602001600020600701819055506001600460008473ffffffffffffffffffffffffffffffffffffffff1673ffffffffffffffffffffffffffffffffffffffff16815260200190815260200160002060080160006101000a81548160ff0219169083151502179055505050565b60025481565b60046020528060005260406000206000915090508060000160009054906101000a900460ff16908060010154908060020154908060030154908060040154908060050154908060060154908060070154908060080160009054906101000a900460ff16908060080160019054906101000a900460ff16908060080160029054906101000a900460ff1690806009015490508c565b600073ffffffffffffffffffffffffffffffffffffffff16600360003373ffffffffffffffffffffffffffffffffffffffff1673ffffffffffffffffffffffffffffffffffffffff16815260200190815260200160002060000160009054906101000a900473ffffffffffffffffffffffffffffffffffffffff1673ffffffffffffffffffffffffffffffffffffffff16036107b5576040517f08c379a00000000000000000000000000000000000000000000000000000000081526004016107ac90612559565b60405180910390fd5b600460003373ffffffffffffffffffffffffffffffffffffffff1673ffffffffffffffffffffffffffffffffffffffff16815260200190815260200160002060000160009054906101000a900460ff16610844576040517f08c379a000000000000000000000000000000000000000000000000000000000815260040161083b906126c3565b60405180910390fd5b60003411610887576040517f08c379a000000000000000000000000000000000000000000000000000000000815260040161087e9061272f565b60405180910390fd5b600460003373ffffffffffffffffffffffffffffffffffffffff1673ffffffffffffffffffffffffffffffffffffffff16815260200190815260200160002060030154600460003373ffffffffffffffffffffffffffffffffffffffff1673ffffffffffffffffffffffffffffffffffffffff16815260200190815260200160002060060154111561091857600080fd5b6000600460003373ffffffffffffffffffffffffffffffffffffffff1673ffffffffffffffffffffffffffffffffffffffff16815260200190815260200160002090503481600401600082825461096f919061277e565b925050819055503481600501600082825461098a91906127b2565b925050819055508060060160008154809291906109a6906127e6565b91905055503373ffffffffffffffffffffffffffffffffffffffff167f395bd21029ce552d1941c174d800a5599c4b1b28887cc9b9eea83c5409da93ef3483600401546040516109f792919061282e565b60405180910390a250565b600080600460003373ffffffffffffffffffffffffffffffffffffffff1673ffffffffffffffffffffffffffffffffffffffff1681526020019081526020016000209050600660009054906101000a900473ffffffffffffffffffffffffffffffffffffffff1673ffffffffffffffffffffffffffffffffffffffff16634b7b86c5336040518263ffffffff1660e01b8152600401610aa1919061230d565b602060405180830381865afa158015610abe573d6000803e3d6000fd5b505050506040513d601f19601f82011682018060405250810190610ae29190612883565b15610b055760018160080160026101000a81548160ff0219169083151502179055505b600660009054906101000a900473ffffffffffffffffffffffffffffffffffffffff1673ffffffffffffffffffffffffffffffffffffffff1663c874ff46336040518263ffffffff1660e01b8152600401610b60919061230d565b602060405180830381865afa158015610b7d573d6000803e3d6000fd5b505050506040513d601f19601f82011682018060405250810190610ba19190612883565b15610cb2576000600660009054906101000a900473ffffffffffffffffffffffffffffffffffffffff1673ffffffffffffffffffffffffffffffffffffffff166398cc9eba336040518263ffffffff1660e01b8152600401610c03919061230d565b602060405180830381865afa158015610c20573d6000803e3d6000fd5b505050506040513d601f19601f82011682018060405250810190610c4491906128c5565b90508160080160029054906101000a900460ff1615610c8d576127106078836007015483610c7291906128f2565b610c7c91906128f2565b610c869190612963565b9250610cac565b6064826007015482610c9f91906128f2565b610ca99190612963565b92505b50610d21565b8060080160029054906101000a900460ff1615610cfd57612710607882600701548360010154610ce291906128f2565b610cec91906128f2565b610cf69190612963565b9150610d20565b606481600701548260010154610d1391906128f2565b610d1d9190612963565b91505b5b8160026000828254610d3391906127b2565b9250508190555060008160000160006101000a81548160ff02191690831515021790555060018160080160006101000a81548160ff02191690831515021790555060003373ffffffffffffffffffffffffffffffffffffffff1683604051610d9a906129c5565b60006040518083038185875af1925050503d8060008114610dd7576040519150601f19603f3d011682016040523d82523d6000602084013e610ddc565b606091505b5050905080610e20576040517f08c379a0000000000000000000000000000000000000000000000000000000008152600401610e1790612a26565b60405180910390fd5b3373ffffffffffffffffffffffffffffffffffffffff167fd1ecb6c48be11bc10ebf5b0c43978edf1b7fcbc3f5adb6a5ea66952d6a73f72a84604051610e669190611fe3565b60405180910390a2505050565b600080600460003373ffffffffffffffffffffffffffffffffffffffff1673ffffffffffffffffffffffffffffffffffffffff1681526020019081526020016000209050806006015491505090565b600080600460003373ffffffffffffffffffffffffffffffffffffffff1673ffffffffffffffffffffffffffffffffffffffff1681526020019081526020016000209050806005015491505090565b600460003373ffffffffffffffffffffffffffffffffffffffff1673ffffffffffffffffffffffffffffffffffffffff16815260200190815260200160002060030154600460003373ffffffffffffffffffffffffffffffffffffffff1673ffffffffffffffffffffffffffffffffffffffff1681526020019081526020016000206006015414610fd7576040517f08c379a0000000000000000000000000000000000000000000000000000000008152600401610fce90612a92565b60405180910390fd5b600460003373ffffffffffffffffffffffffffffffffffffffff1673ffffffffffffffffffffffffffffffffffffffff16815260200190815260200160002060080160019054906101000a900460ff1615611067576040517f08c379a000000000000000000000000000000000000000000000000000000000815260040161105e90612b24565b60405180910390fd5b6000600460003373ffffffffffffffffffffffffffffffffffffffff1673ffffffffffffffffffffffffffffffffffffffff16815260200190815260200160002060080160016101000a81548160ff021916908315150217905550600560009054906101000a900473ffffffffffffffffffffffffffffffffffffffff1673ffffffffffffffffffffffffffffffffffffffff166322e2e12d348585856040518563ffffffff1660e01b815260040161112293929190612b44565b6000604051808303818588803b15801561113b57600080fd5b505af115801561114f573d6000803e3d6000fd5b5050505050505050565b611161611e93565b600034116111a4576040517f08c379a000000000000000000000000000000000000000000000000000000000815260040161119b90612bce565b60405180910390fd5b34600260008282546111b6919061277e565b925050819055506111c5611ee2565b565b600073ffffffffffffffffffffffffffffffffffffffff16600360003373ffffffffffffffffffffffffffffffffffffffff1673ffffffffffffffffffffffffffffffffffffffff16815260200190815260200160002060000160009054906101000a900473ffffffffffffffffffffffffffffffffffffffff1673ffffffffffffffffffffffffffffffffffffffff1614611298576040517f08c379a000000000000000000000000000000000000000000000000000000000815260040161128f90612c3a565b60405180910390fd5b60405180604001604052803373ffffffffffffffffffffffffffffffffffffffff16815260200182815250600360003373ffffffffffffffffffffffffffffffffffffffff1673ffffffffffffffffffffffffffffffffffffffff16815260200190815260200160002060008201518160000160006101000a81548173ffffffffffffffffffffffffffffffffffffffff021916908373ffffffffffffffffffffffffffffffffffffffff160217905550602082015181600101908161135e9190612e5c565b5090505050565b600090565b600160009054906101000a900473ffffffffffffffffffffffffffffffffffffffff1681565b600080600460003373ffffffffffffffffffffffffffffffffffffffff1673ffffffffffffffffffffffffffffffffffffffff1681526020019081526020016000209050806006015481600301546113e891906127b2565b91505090565b600560009054906101000a900473ffffffffffffffffffffffffffffffffffffffff1681565b60036020528060005260406000206000915090508060000160009054906101000a900473ffffffffffffffffffffffffffffffffffffffff169080600101805461145d90612c89565b80601f016020809104026020016040519081016040528092919081815260200182805461148990612c89565b80156114d65780601f106114ab576101008083540402835291602001916114d6565b820191906000526020600020905b8154815290600101906020018083116114b957829003601f168201915b5050505050905082565b7f000000000000000000000000000000000000000000000000000000000000000081565b600073ffffffffffffffffffffffffffffffffffffffff16600360003373ffffffffffffffffffffffffffffffffffffffff1673ffffffffffffffffffffffffffffffffffffffff16815260200190815260200160002060000160009054906101000a900473ffffffffffffffffffffffffffffffffffffffff1673ffffffffffffffffffffffffffffffffffffffff16036115d5576040517f08c379a00000000000000000000000000000000000000000000000000000000081526004016115cc90612559565b60405180910390fd5b7f0000000000000000000000000000000000000000000000000000000000000000341015611638576040517f08c379a000000000000000000000000000000000000000000000000000000000815260040161162f90612fa0565b60405180910390fd5b600460003373ffffffffffffffffffffffffffffffffffffffff1673ffffffffffffffffffffffffffffffffffffffff16815260200190815260200160002060000160009054906101000a900460ff16156116c8576040517f08c379a00000000000000000000000000000000000000000000000000000000081526004016116bf9061300c565b60405180910390fd5b6040518061018001604052806001151581526020018481526020018381526020018281526020016000815260200184815260200160008152602001600081526020016000151581526020016000151581526020016000151581526020016002815250600460003373ffffffffffffffffffffffffffffffffffffffff1673ffffffffffffffffffffffffffffffffffffffff16815260200190815260200160002060008201518160000160006101000a81548160ff0219169083151502179055506020820151816001015560408201518160020155606082015181600301556080820151816004015560a0820151816005015560c0820151816006015560e082015181600701556101008201518160080160006101000a81548160ff0219169083151502179055506101208201518160080160016101000a81548160ff0219169083151502179055506101408201518160080160026101000a81548160ff02191690831515021790555061016082015181600901559050503373ffffffffffffffffffffffffffffffffffffffff167fc313833ef12e3592b337bf2dafdf346423db10fb975b55aee2a87892a9b20979848460405161188892919061282e565b60405180910390a2505050565b600660009054906101000a900473ffffffffffffffffffffffffffffffffffffffff1681565b600073ffffffffffffffffffffffffffffffffffffffff16600360003373ffffffffffffffffffffffffffffffffffffffff1673ffffffffffffffffffffffffffffffffffffffff16815260200190815260200160002060000160009054906101000a900473ffffffffffffffffffffffffffffffffffffffff1673ffffffffffffffffffffffffffffffffffffffff160361198c576040517f08c379a000000000000000000000000000000000000000000000000000000000815260040161198390612559565b60405180910390fd5b611994611e93565b6000600460003373ffffffffffffffffffffffffffffffffffffffff1673ffffffffffffffffffffffffffffffffffffffff16815260200190815260200160002060000160009054906101000a900460ff16611a25576040517f08c379a0000000000000000000000000000000000000000000000000000000008152600401611a1c906126c3565b60405180910390fd5b600460003373ffffffffffffffffffffffffffffffffffffffff1673ffffffffffffffffffffffffffffffffffffffff16815260200190815260200160002060030154600460003373ffffffffffffffffffffffffffffffffffffffff1673ffffffffffffffffffffffffffffffffffffffff1681526020019081526020016000206006015414611aeb576040517f08c379a0000000000000000000000000000000000000000000000000000000008152600401611ae290612a92565b60405180910390fd5b600460003373ffffffffffffffffffffffffffffffffffffffff1673ffffffffffffffffffffffffffffffffffffffff16815260200190815260200160002060080160019054906101000a900460ff1615611b7b576040517f08c379a0000000000000000000000000000000000000000000000000000000008152600401611b7290612b24565b60405180910390fd5b6000600460003373ffffffffffffffffffffffffffffffffffffffff1673ffffffffffffffffffffffffffffffffffffffff1681526020019081526020016000209050611bc833846103f3565b600660009054906101000a900473ffffffffffffffffffffffffffffffffffffffff1673ffffffffffffffffffffffffffffffffffffffff16634b7b86c5336040518263ffffffff1660e01b8152600401611c23919061230d565b602060405180830381865afa158015611c40573d6000803e3d6000fd5b505050506040513d601f19601f82011682018060405250810190611c649190612883565b15611c875760018160080160026101000a81548160ff0219169083151502179055505b8060080160029054906101000a900460ff1615611cd257612710607882600701548360010154611cb791906128f2565b611cc191906128f2565b611ccb9190612963565b9150611cf5565b606481600701548260010154611ce891906128f2565b611cf29190612963565b91505b60008211611d38576040517f08c379a0000000000000000000000000000000000000000000000000000000008152600401611d2f90613078565b60405180910390fd5b8160026000828254611d4a91906127b2565b9250508190555060008160000160006101000a81548160ff02191690831515021790555060018160080160006101000a81548160ff02191690831515021790555060003373ffffffffffffffffffffffffffffffffffffffff1683604051611db1906129c5565b60006040518083038185875af1925050503d8060008114611dee576040519150601f19603f3d011682016040523d82523d6000602084013e611df3565b606091505b5050905080611e37576040517f08c379a0000000000000000000000000000000000000000000000000000000008152600401611e2e90612a26565b60405180910390fd5b3373ffffffffffffffffffffffffffffffffffffffff167fd1ecb6c48be11bc10ebf5b0c43978edf1b7fcbc3f5adb6a5ea66952d6a73f72a84604051611e7d9190611fe3565b60405180910390a2505050611e90611ee2565b50565b600260005403611ed8576040517f08c379a0000000000000000000000000000000000000000000000000000000008152600401611ecf906130e4565b60405180910390fd5b6002600081905550565b6001600081905550565b6000604051905090565b600080fd5b600080fd5b600073ffffffffffffffffffffffffffffffffffffffff82169050919050565b6000611f2b82611f00565b9050919050565b611f3b81611f20565b8114611f4657600080fd5b50565b600081359050611f5881611f32565b92915050565b6000819050919050565b611f7181611f5e565b8114611f7c57600080fd5b50565b600081359050611f8e81611f68565b92915050565b60008060408385031215611fab57611faa611ef6565b5b6000611fb985828601611f49565b9250506020611fca85828601611f7f565b9150509250929050565b611fdd81611f5e565b82525050565b6000602082019050611ff86000830184611fd4565b92915050565b60006020828403121561201457612013611ef6565b5b600061202284828501611f49565b91505092915050565b60008115159050919050565b6120408161202b565b82525050565b60006101808201905061205c600083018f612037565b612069602083018e611fd4565b612076604083018d611fd4565b612083606083018c611fd4565b612090608083018b611fd4565b61209d60a083018a611fd4565b6120aa60c0830189611fd4565b6120b760e0830188611fd4565b6120c5610100830187612037565b6120d3610120830186612037565b6120e1610140830185612037565b6120ef610160830184611fd4565b9d9c50505050505050505050505050565b600080fd5b600080fd5b6000601f19601f8301169050919050565b7f4e487b7100000000000000000000000000000000000000000000000000000000600052604160045260246000fd5b6121538261210a565b810181811067ffffffffffffffff821117156121725761217161211b565b5b80604052505050565b6000612185611eec565b9050612191828261214a565b919050565b600067ffffffffffffffff8211156121b1576121b061211b565b5b6121ba8261210a565b9050602081019050919050565b82818337600083830152505050565b60006121e96121e484612196565b61217b565b90508281526020810184848401111561220557612204612105565b5b6122108482856121c7565b509392505050565b600082601f83011261222d5761222c612100565b5b813561223d8482602086016121d6565b91505092915050565b60008060006060848603121561225f5761225e611ef6565b5b600084013567ffffffffffffffff81111561227d5761227c611efb565b5b61228986828701612218565b935050602061229a86828701611f7f565b92505060406122ab86828701611f7f565b9150509250925092565b6000602082840312156122cb576122ca611ef6565b5b600082013567ffffffffffffffff8111156122e9576122e8611efb565b5b6122f584828501612218565b91505092915050565b61230781611f20565b82525050565b600060208201905061232260008301846122fe565b92915050565b6000819050919050565b600061234d61234861234384611f00565b612328565b611f00565b9050919050565b600061235f82612332565b9050919050565b600061237182612354565b9050919050565b61238181612366565b82525050565b600060208201905061239c6000830184612378565b92915050565b600081519050919050565b600082825260208201905092915050565b60005b838110156123dc5780820151818401526020810190506123c1565b60008484015250505050565b60006123f3826123a2565b6123fd81856123ad565b935061240d8185602086016123be565b6124168161210a565b840191505092915050565b600060408201905061243660008301856122fe565b818103602083015261244881846123e8565b90509392505050565b60008060006060848603121561246a57612469611ef6565b5b600061247886828701611f7f565b935050602061248986828701611f7f565b925050604061249a86828701611f7f565b9150509250925092565b60006124af82612354565b9050919050565b6124bf816124a4565b82525050565b60006020820190506124da60008301846124b6565b92915050565b6000602082840312156124f6576124f5611ef6565b5b600061250484828501611f7f565b91505092915050565b7f55736572206e6f74207265676973746572656400000000000000000000000000600082015250565b60006125436013836123ad565b915061254e8261250d565b602082019050919050565b6000602082019050818103600083015261257281612536565b9050919050565b7f4e6f2061637469766520696e737572616e636520666f7220746869732075736560008201527f7200000000000000000000000000000000000000000000000000000000000000602082015250565b60006125d56021836123ad565b91506125e082612579565b604082019050919050565b60006020820190508181036000830152612604816125c8565b9050919050565b7f496e76616c69642064616d61676520666163746f720000000000000000000000600082015250565b60006126416015836123ad565b915061264c8261260b565b602082019050919050565b6000602082019050818103600083015261267081612634565b9050919050565b7f4e6f2061637469766520696e737572616e636500000000000000000000000000600082015250565b60006126ad6013836123ad565b91506126b882612677565b602082019050919050565b600060208201905081810360008301526126dc816126a0565b9050919050565b7f5072656d69756d206d7573742062652067726561746572207468616e20300000600082015250565b6000612719601e836123ad565b9150612724826126e3565b602082019050919050565b600060208201905081810360008301526127488161270c565b9050919050565b7f4e487b7100000000000000000000000000000000000000000000000000000000600052601160045260246000fd5b600061278982611f5e565b915061279483611f5e565b92508282019050808211156127ac576127ab61274f565b5b92915050565b60006127bd82611f5e565b91506127c883611f5e565b92508282039050818111156127e0576127df61274f565b5b92915050565b60006127f182611f5e565b91507fffffffffffffffffffffffffffffffffffffffffffffffffffffffffffffffff82036128235761282261274f565b5b600182019050919050565b60006040820190506128436000830185611fd4565b6128506020830184611fd4565b9392505050565b6128608161202b565b811461286b57600080fd5b50565b60008151905061287d81612857565b92915050565b60006020828403121561289957612898611ef6565b5b60006128a78482850161286e565b91505092915050565b6000815190506128bf81611f68565b92915050565b6000602082840312156128db576128da611ef6565b5b60006128e9848285016128b0565b91505092915050565b60006128fd82611f5e565b915061290883611f5e565b925082820261291681611f5e565b9150828204841483151761292d5761292c61274f565b5b5092915050565b7f4e487b7100000000000000000000000000000000000000000000000000000000600052601260045260246000fd5b600061296e82611f5e565b915061297983611f5e565b92508261298957612988612934565b5b828204905092915050565b600081905092915050565b50565b60006129af600083612994565b91506129ba8261299f565b600082019050919050565b60006129d0826129a2565b9150819050919050565b7f5472616e73666572206661696c65640000000000000000000000000000000000600082015250565b6000612a10600f836123ad565b9150612a1b826129da565b602082019050919050565b60006020820190508181036000830152612a3f81612a03565b9050919050565b7f7072656d69756d206e6f74207061696420696e2066756c6c0000000000000000600082015250565b6000612a7c6018836123ad565b9150612a8782612a46565b602082019050919050565b60006020820190508181036000830152612aab81612a6f565b9050919050565b7f75736572206861732072656a65637465642074686520636c61696d2c2070726f60008201527f6365656420746f20726169736520612071756572790000000000000000000000602082015250565b6000612b0e6035836123ad565b9150612b1982612ab2565b604082019050919050565b60006020820190508181036000830152612b3d81612b01565b9050919050565b60006060820190508181036000830152612b5e81866123e8565b9050612b6d6020830185611fd4565b612b7a6040830184611fd4565b949350505050565b7f53656e6420736f6d652045544800000000000000000000000000000000000000600082015250565b6000612bb8600d836123ad565b9150612bc382612b82565b602082019050919050565b60006020820190508181036000830152612be781612bab565b9050919050565b7f5573657220616c72656164792072656769737465726564000000000000000000600082015250565b6000612c246017836123ad565b9150612c2f82612bee565b602082019050919050565b60006020820190508181036000830152612c5381612c17565b9050919050565b7f4e487b7100000000000000000000000000000000000000000000000000000000600052602260045260246000fd5b60006002820490506001821680612ca157607f821691505b602082108103612cb457612cb3612c5a565b5b50919050565b60008190508160005260206000209050919050565b60006020601f8301049050919050565b600082821b905092915050565b600060088302612d1c7fffffffffffffffffffffffffffffffffffffffffffffffffffffffffffffffff82612cdf565b612d268683612cdf565b95508019841693508086168417925050509392505050565b6000612d59612d54612d4f84611f5e565b612328565b611f5e565b9050919050565b6000819050919050565b612d7383612d3e565b612d87612d7f82612d60565b848454612cec565b825550505050565b600090565b612d9c612d8f565b612da7818484612d6a565b505050565b5b81811015612dcb57612dc0600082612d94565b600181019050612dad565b5050565b601f821115612e1057612de181612cba565b612dea84612ccf565b81016020851015612df9578190505b612e0d612e0585612ccf565b830182612dac565b50505b505050565b600082821c905092915050565b6000612e3360001984600802612e15565b1980831691505092915050565b6000612e4c8383612e22565b9150826002028217905092915050565b612e65826123a2565b67ffffffffffffffff811115612e7e57612e7d61211b565b5b612e888254612c89565b612e93828285612dcf565b600060209050601f831160018114612ec65760008415612eb4578287015190505b612ebe8582612e40565b865550612f26565b601f198416612ed486612cba565b60005b82811015612efc57848901518255600182019150602085019450602081019050612ed7565b86831015612f195784890151612f15601f891682612e22565b8355505b6001600288020188555050505b505050505050565b7f53656e6420656e6f756768206d6f6e657920746f2063726561746520696e737560008201527f72616e6365000000000000000000000000000000000000000000000000000000602082015250565b6000612f8a6025836123ad565b9150612f9582612f2e565b604082019050919050565b60006020820190508181036000830152612fb981612f7d565b9050919050565b7f496e737572616e636520616c7265616479206578697374730000000000000000600082015250565b6000612ff66018836123ad565b915061300182612fc0565b602082019050919050565b6000602082019050818103600083015261302581612fe9565b9050919050565b7f63616e6e6f742070726f63657373207061796d656e7420000000000000000000600082015250565b60006130626017836123ad565b915061306d8261302c565b602082019050919050565b6000602082019050818103600083015261309181613055565b9050919050565b7f5265656e7472616e637947756172643a207265656e7472616e742063616c6c00600082015250565b60006130ce601f836123ad565b91506130d982613098565b602082019050919050565b600060208201905081810360008301526130fd816130c1565b905091905056fea2646970667358221220cc00fe20eddd34296bfa421918c86b5954a05d8359da5eb3e703e34377cacab464736f6c634300081c0033",
  "devdoc": {
    "kind": "dev",
    "methods": {},
    "version": 1
  },
  "userdoc": {
    "kind": "user",
    "methods": {},
    "version": 1
  },
  "storageLayout": {
    "storage": [
      {
        "astId": 123,
        "contract": "contracts/insurance1.sol:InsuranceOne",
        "label": "_status",
        "offset": 0,
        "slot": "0",
        "type": "t_uint256"
      },
      {
        "astId": 1433,
        "contract": "contracts/insurance1.sol:InsuranceOne",
        "label": "owner",
        "offset": 0,
        "slot": "1",
        "type": "t_address"
      },
      {
        "astId": 1435,
        "contract": "contracts/insurance1.sol:InsuranceOne",
        "label": "totalFund",
        "offset": 0,
        "slot": "2",
        "type": "t_uint256"
      },
      {
        "astId": 1474,
        "contract": "contracts/insurance1.sol:InsuranceOne",
        "label": "users",
        "offset": 0,
        "slot": "3",
        "type": "t_mapping(t_address,t_struct(UserInfo)1440_storage)"
      },
      {
        "astId": 1479,
        "contract": "contracts/insurance1.sol:InsuranceOne",
        "label": "insurances",
        "offset": 0,
        "slot": "4",
        "type": "t_mapping(t_address,t_struct(InsuranceInfo)1469_storage)"
      },
      {
        "astId": 1542,
        "contract": "contracts/insurance1.sol:InsuranceOne",
        "label": "DAO",
        "offset": 0,
        "slot": "5",
        "type": "t_contract(InsuranceDAO)1382"
      },
      {
        "astId": 1545,
        "contract": "contracts/insurance1.sol:InsuranceOne",
        "label": "master",
        "offset": 0,
        "slot": "6",
        "type": "t_contract(masterContract)2329"
      }
    ],
    "types": {
      "t_address": {
        "encoding": "inplace",
        "label": "address",
        "numberOfBytes": "20"
      },
      "t_bool": {
        "encoding": "inplace",
        "label": "bool",
        "numberOfBytes": "1"
      },
      "t_contract(InsuranceDAO)1382": {
        "encoding": "inplace",
        "label": "contract InsuranceDAO",
        "numberOfBytes": "20"
      },
      "t_contract(masterContract)2329": {
        "encoding": "inplace",
        "label": "contract masterContract",
        "numberOfBytes": "20"
      },
      "t_mapping(t_address,t_struct(InsuranceInfo)1469_storage)": {
        "encoding": "mapping",
        "key": "t_address",
        "label": "mapping(address => struct InsuranceOne.InsuranceInfo)",
        "numberOfBytes": "32",
        "value": "t_struct(InsuranceInfo)1469_storage"
      },
      "t_mapping(t_address,t_struct(UserInfo)1440_storage)": {
        "encoding": "mapping",
        "key": "t_address",
        "label": "mapping(address => struct InsuranceOne.UserInfo)",
        "numberOfBytes": "32",
        "value": "t_struct(UserInfo)1440_storage"
      },
      "t_string_storage": {
        "encoding": "bytes",
        "label": "string",
        "numberOfBytes": "32"
      },
      "t_struct(InsuranceInfo)1469_storage": {
        "encoding": "inplace",
        "label": "struct InsuranceOne.InsuranceInfo",
        "members": [
          {
            "astId": 1446,
            "contract": "contracts/insurance1.sol:InsuranceOne",
            "label": "isOpen",
            "offset": 0,
            "slot": "0",
            "type": "t_bool"
          },
          {
            "astId": 1448,
            "contract": "contracts/insurance1.sol:InsuranceOne",
            "label": "value",
            "offset": 0,
            "slot": "1",
            "type": "t_uint256"
          },
          {
            "astId": 1450,
            "contract": "contracts/insurance1.sol:InsuranceOne",
            "label": "deadline",
            "offset": 0,
            "slot": "2",
            "type": "t_uint256"
          },
          {
            "astId": 1452,
            "contract": "contracts/insurance1.sol:InsuranceOne",
            "label": "paymentFreq",
            "offset": 0,
            "slot": "3",
            "type": "t_uint256"
          },
          {
            "astId": 1454,
            "contract": "contracts/insurance1.sol:InsuranceOne",
            "label": "totalPremiumPaid",
            "offset": 0,
            "slot": "4",
            "type": "t_uint256"
          },
          {
            "astId": 1456,
            "contract": "contracts/insurance1.sol:InsuranceOne",
            "label": "totalPaymentPending",
            "offset": 0,
            "slot": "5",
            "type": "t_uint256"
          },
          {
            "astId": 1458,
            "contract": "contracts/insurance1.sol:InsuranceOne",
            "label": "timesPaid",
            "offset": 0,
            "slot": "6",
            "type": "t_uint256"
          },
          {
            "astId": 1460,
            "contract": "contracts/insurance1.sol:InsuranceOne",
            "label": "damageFactor",
            "offset": 0,
            "slot": "7",
            "type": "t_uint256"
          },
          {
            "astId": 1462,
            "contract": "contracts/insurance1.sol:InsuranceOne",
            "label": "claimApproved",
            "offset": 0,
            "slot": "8",
            "type": "t_bool"
          },
          {
            "astId": 1464,
            "contract": "contracts/insurance1.sol:InsuranceOne",
            "label": "isRejected",
            "offset": 1,
            "slot": "8",
            "type": "t_bool"
          },
          {
            "astId": 1466,
            "contract": "contracts/insurance1.sol:InsuranceOne",
            "label": "hasNFT",
            "offset": 2,
            "slot": "8",
            "type": "t_bool"
          },
          {
            "astId": 1468,
            "contract": "contracts/insurance1.sol:InsuranceOne",
            "label": "premium",
            "offset": 0,
            "slot": "9",
            "type": "t_uint256"
          }
        ],
        "numberOfBytes": "320"
      },
      "t_struct(UserInfo)1440_storage": {
        "encoding": "inplace",
        "label": "struct InsuranceOne.UserInfo",
        "members": [
          {
            "astId": 1437,
            "contract": "contracts/insurance1.sol:InsuranceOne",
            "label": "user",
            "offset": 0,
            "slot": "0",
            "type": "t_address"
          },
          {
            "astId": 1439,
            "contract": "contracts/insurance1.sol:InsuranceOne",
            "label": "name",
            "offset": 0,
            "slot": "1",
            "type": "t_string_storage"
          }
        ],
        "numberOfBytes": "64"
      },
      "t_uint256": {
        "encoding": "inplace",
        "label": "uint256",
        "numberOfBytes": "32"
      }
    }
  }
}