{
  "address": "0x27482e9773c7095b3C2afFc072eEB81080A00510",
  "abi": [
    {
      "inputs": [
        {
          "internalType": "address",
          "name": "_governanceToken",
          "type": "address"
        },
        {
          "internalType": "uint256",
          "name": "_fee",
          "type": "uint256"
        },
        {
          "internalType": "address",
          "name": "_a",
          "type": "address"
        }
      ],
      "stateMutability": "nonpayable",
      "type": "constructor"
    },
    {
      "anonymous": false,
      "inputs": [
        {
          "indexed": true,
          "internalType": "address",
          "name": "user",
          "type": "address"
        }
      ],
      "name": "DAO_Joined",
      "type": "event"
    },
    {
      "anonymous": false,
      "inputs": [
        {
          "indexed": false,
          "internalType": "uint256",
          "name": "id",
          "type": "uint256"
        },
        {
          "indexed": false,
          "internalType": "string",
          "name": "description",
          "type": "string"
        }
      ],
      "name": "ProposalCreated",
      "type": "event"
    },
    {
      "anonymous": false,
      "inputs": [
        {
          "indexed": false,
          "internalType": "uint256",
          "name": "id",
          "type": "uint256"
        },
        {
          "indexed": false,
          "internalType": "bool",
          "name": "passed",
          "type": "bool"
        }
      ],
      "name": "ProposalExecuted",
      "type": "event"
    },
    {
      "anonymous": false,
      "inputs": [
        {
          "indexed": false,
          "internalType": "uint256",
          "name": "proposalId",
          "type": "uint256"
        },
        {
          "indexed": false,
          "internalType": "address",
          "name": "voter",
          "type": "address"
        },
        {
          "indexed": false,
          "internalType": "bool",
          "name": "voteFor",
          "type": "bool"
        },
        {
          "indexed": false,
          "internalType": "uint256",
          "name": "amount",
          "type": "uint256"
        }
      ],
      "name": "Voted",
      "type": "event"
    },
    {
      "inputs": [],
      "name": "FEE",
      "outputs": [
        {
          "internalType": "uint256",
          "name": "",
          "type": "uint256"
        }
      ],
      "stateMutability": "view",
      "type": "function"
    },
    {
      "inputs": [
        {
          "internalType": "string",
          "name": "description",
          "type": "string"
        },
        {
          "internalType": "uint256",
          "name": "_insuranceType",
          "type": "uint256"
        },
        {
          "internalType": "uint256",
          "name": "_amountToBeSetteled",
          "type": "uint256"
        }
      ],
      "name": "createProposal",
      "outputs": [],
      "stateMutability": "payable",
      "type": "function"
    },
    {
      "inputs": [],
      "name": "getAllProposals",
      "outputs": [
        {
          "components": [
            {
              "internalType": "address",
              "name": "proposer",
              "type": "address"
            },
            {
              "internalType": "uint256",
              "name": "id",
              "type": "uint256"
            },
            {
              "internalType": "string",
              "name": "description",
              "type": "string"
            },
            {
              "internalType": "uint256",
              "name": "votesFor",
              "type": "uint256"
            },
            {
              "internalType": "uint256",
              "name": "votesAgainst",
              "type": "uint256"
            },
            {
              "internalType": "uint256",
              "name": "insuranceType",
              "type": "uint256"
            },
            {
              "internalType": "bool",
              "name": "executed",
              "type": "bool"
            },
            {
              "internalType": "uint256",
              "name": "amountToBeSetteled",
              "type": "uint256"
            }
          ],
          "internalType": "struct InsuranceDAO.Proposal[]",
          "name": "",
          "type": "tuple[]"
        }
      ],
      "stateMutability": "nonpayable",
      "type": "function"
    },
    {
      "inputs": [],
      "name": "governanceToken",
      "outputs": [
        {
          "internalType": "address",
          "name": "",
          "type": "address"
        }
      ],
      "stateMutability": "view",
      "type": "function"
    },
    {
      "inputs": [
        {
          "internalType": "address",
          "name": "",
          "type": "address"
        },
        {
          "internalType": "uint256",
          "name": "",
          "type": "uint256"
        }
      ],
      "name": "hasVoted",
      "outputs": [
        {
          "internalType": "bool",
          "name": "",
          "type": "bool"
        }
      ],
      "stateMutability": "view",
      "type": "function"
    },
    {
      "inputs": [
        {
          "internalType": "uint256",
          "name": "proposalId",
          "type": "uint256"
        }
      ],
      "name": "isPassed",
      "outputs": [
        {
          "internalType": "bool",
          "name": "",
          "type": "bool"
        }
      ],
      "stateMutability": "nonpayable",
      "type": "function"
    },
    {
      "inputs": [],
      "name": "joinDAO",
      "outputs": [],
      "stateMutability": "payable",
      "type": "function"
    },
    {
      "inputs": [],
      "name": "master",
      "outputs": [
        {
          "internalType": "contract masterContract",
          "name": "",
          "type": "address"
        }
      ],
      "stateMutability": "view",
      "type": "function"
    },
    {
      "inputs": [],
      "name": "owner",
      "outputs": [
        {
          "internalType": "address",
          "name": "",
          "type": "address"
        }
      ],
      "stateMutability": "view",
      "type": "function"
    },
    {
      "inputs": [
        {
          "internalType": "uint256",
          "name": "proposalId",
          "type": "uint256"
        }
      ],
      "name": "processPassedProposals",
      "outputs": [],
      "stateMutability": "nonpayable",
      "type": "function"
    },
    {
      "inputs": [],
      "name": "proposalCount",
      "outputs": [
        {
          "internalType": "uint256",
          "name": "",
          "type": "uint256"
        }
      ],
      "stateMutability": "view",
      "type": "function"
    },
    {
      "inputs": [
        {
          "internalType": "uint256",
          "name": "",
          "type": "uint256"
        }
      ],
      "name": "proposals",
      "outputs": [
        {
          "internalType": "address",
          "name": "proposer",
          "type": "address"
        },
        {
          "internalType": "uint256",
          "name": "id",
          "type": "uint256"
        },
        {
          "internalType": "string",
          "name": "description",
          "type": "string"
        },
        {
          "internalType": "uint256",
          "name": "votesFor",
          "type": "uint256"
        },
        {
          "internalType": "uint256",
          "name": "votesAgainst",
          "type": "uint256"
        },
        {
          "internalType": "uint256",
          "name": "insuranceType",
          "type": "uint256"
        },
        {
          "internalType": "bool",
          "name": "executed",
          "type": "bool"
        },
        {
          "internalType": "uint256",
          "name": "amountToBeSetteled",
          "type": "uint256"
        }
      ],
      "stateMutability": "view",
      "type": "function"
    },
    {
      "inputs": [],
      "name": "token",
      "outputs": [
        {
          "internalType": "contract AgroCoin",
          "name": "",
          "type": "address"
        }
      ],
      "stateMutability": "view",
      "type": "function"
    },
    {
      "inputs": [
        {
          "internalType": "uint256",
          "name": "proposalId",
          "type": "uint256"
        },
        {
          "internalType": "bool",
          "name": "voteFor",
          "type": "bool"
        },
        {
          "internalType": "uint256",
          "name": "amount",
          "type": "uint256"
        }
      ],
      "name": "voteOnProposal",
      "outputs": [],
      "stateMutability": "nonpayable",
      "type": "function"
    }
  ],
  "transactionHash": "0xb9faf183cc2a2800cf54f35344773f0d9e05189533211fe66a1396485d07b8fc",
  "args": [
    "0xa062e4bc4039b697897211D43e90fA548b269D48",
    "500000000000000000",
    "0x1c62B148b3fF74655503568f7321420a12c85772"
  ],
  "numDeployments": 2,
  "solcInputHash": "648d762dac1317b368c5b6b04ba7d3aa",
  "bytecode": "0x60a060405234801561001057600080fd5b5060405161262b38038061262b83398181016040528101906100329190610198565b60016000819055508273ffffffffffffffffffffffffffffffffffffffff1660808173ffffffffffffffffffffffffffffffffffffffff168152505033600160006101000a81548173ffffffffffffffffffffffffffffffffffffffff021916908373ffffffffffffffffffffffffffffffffffffffff1602179055508160038190555080600860006101000a81548173ffffffffffffffffffffffffffffffffffffffff021916908373ffffffffffffffffffffffffffffffffffffffff1602179055505050506101eb565b600080fd5b600073ffffffffffffffffffffffffffffffffffffffff82169050919050565b600061012f82610104565b9050919050565b61013f81610124565b811461014a57600080fd5b50565b60008151905061015c81610136565b92915050565b6000819050919050565b61017581610162565b811461018057600080fd5b50565b6000815190506101928161016c565b92915050565b6000806000606084860312156101b1576101b06100ff565b5b60006101bf8682870161014d565b93505060206101d086828701610183565b92505060406101e18682870161014d565b9150509250925092565b60805161241e61020d6000396000818161072a015261124b015261241e6000f3fe6080604052600436106100dd5760003560e01c8063cceb68f51161007f578063ee97f7f311610059578063ee97f7f3146102ba578063f63d13d7146102e5578063f96dae0a146102ef578063fc0c546a1461031a576100dd565b8063cceb68f51461023b578063d3506f3d14610266578063da35c6641461028f576100dd565b806342545825116100bb578063425458251461016b57806349403183146101a85780638da5cb5b146101e5578063c57981b514610210576100dd565b8063013cf08b146100e257806322e2e12d146101265780633106fea014610142575b600080fd5b3480156100ee57600080fd5b5061010960048036038101906101049190611393565b610345565b60405161011d9897969594939291906114bb565b60405180910390f35b610140600480360381019061013b9190611675565b610442565b005b34801561014e57600080fd5b5061016960048036038101906101649190611710565b610628565b005b34801561017757600080fd5b50610192600480360381019061018d919061178f565b6109e7565b60405161019f91906117cf565b60405180910390f35b3480156101b457600080fd5b506101cf60048036038101906101ca9190611393565b610a16565b6040516101dc91906117cf565b60405180910390f35b3480156101f157600080fd5b506101fa610b39565b60405161020791906117ea565b60405180910390f35b34801561021c57600080fd5b50610225610b5f565b6040516102329190611805565b60405180910390f35b34801561024757600080fd5b50610250610b65565b60405161025d9190611a09565b60405180910390f35b34801561027257600080fd5b5061028d60048036038101906102889190611393565b610d79565b005b34801561029b57600080fd5b506102a461104b565b6040516102b19190611805565b60405180910390f35b3480156102c657600080fd5b506102cf611051565b6040516102dc9190611a8a565b60405180910390f35b6102ed611077565b005b3480156102fb57600080fd5b50610304611249565b60405161031191906117ea565b60405180910390f35b34801561032657600080fd5b5061032f61126d565b60405161033c9190611ac6565b60405180910390f35b60066020528060005260406000206000915090508060000160009054906101000a900473ffffffffffffffffffffffffffffffffffffffff169080600101549080600201805461039490611b10565b80601f01602080910402602001604051908101604052809291908181526020018280546103c090611b10565b801561040d5780601f106103e25761010080835404028352916020019161040d565b820191906000526020600020905b8154815290600101906020018083116103f057829003601f168201915b5050505050908060030154908060040154908060050154908060060160009054906101000a900460ff16908060070154905088565b600354341015610487576040517f08c379a000000000000000000000000000000000000000000000000000000000815260040161047e90611b8d565b60405180910390fd5b6002600081548092919061049a90611bdc565b91905055506040518061010001604052803373ffffffffffffffffffffffffffffffffffffffff168152602001600254815260200184815260200160008152602001600081526020018381526020016000151581526020018281525060066000600254815260200190815260200160002060008201518160000160006101000a81548173ffffffffffffffffffffffffffffffffffffffff021916908373ffffffffffffffffffffffffffffffffffffffff1602179055506020820151816001015560408201518160020190816105719190611dc6565b50606082015181600301556080820151816004015560a0820151816005015560c08201518160060160006101000a81548160ff02191690831515021790555060e08201518160070155905050600a60025490806001815401808255809150506001900390600052602060002001600090919091909150557f9c770c289ab5bf7e57cb1d23c8ceae993aea46eb64847072fd3d78ca60d3e4326002548460405161061b929190611e98565b60405180910390a1505050565b610630611293565b82600660008581526020019081526020016000206001015414610688576040517f08c379a000000000000000000000000000000000000000000000000000000000815260040161067f90611f14565b60405180910390fd5b600760003373ffffffffffffffffffffffffffffffffffffffff1673ffffffffffffffffffffffffffffffffffffffff168152602001908152602001600020600084815260200190815260200160002060009054906101000a900460ff1615610726576040517f08c379a000000000000000000000000000000000000000000000000000000000815260040161071d90611f80565b60405180910390fd5b60007f00000000000000000000000000000000000000000000000000000000000000009050818173ffffffffffffffffffffffffffffffffffffffff166370a08231336040518263ffffffff1660e01b815260040161078591906117ea565b602060405180830381865afa1580156107a2573d6000803e3d6000fd5b505050506040513d601f19601f820116820180604052508101906107c69190611fb5565b1015610807576040517f08c379a00000000000000000000000000000000000000000000000000000000081526004016107fe9061202e565b60405180910390fd5b8073ffffffffffffffffffffffffffffffffffffffff166323b872dd3330856040518463ffffffff1660e01b81526004016108449392919061204e565b6020604051808303816000875af1158015610863573d6000803e3d6000fd5b505050506040513d601f19601f82011682018060405250810190610887919061209a565b6108c6576040517f08c379a00000000000000000000000000000000000000000000000000000000081526004016108bd90612113565b60405180910390fd5b82156108fe57816006600086815260200190815260200160002060030160008282546108f29190612133565b9250508190555061092c565b816006600086815260200190815260200160002060040160008282546109249190612133565b925050819055505b6001600760003373ffffffffffffffffffffffffffffffffffffffff1673ffffffffffffffffffffffffffffffffffffffff168152602001908152602001600020600086815260200190815260200160002060006101000a81548160ff0219169083151502179055506000600490507f7c2de587c00d75474a0c6c6fa96fd3b45dc974cd4e8a75f712bb84c950dce1b5853386866040516109d09493929190612167565b60405180910390a150506109e26112e2565b505050565b60076020528160005260406000206020528060005260406000206000915091509054906101000a900460ff1681565b600081600660008481526020019081526020016000206001015414610a70576040517f08c379a0000000000000000000000000000000000000000000000000000000008152600401610a6790611f14565b60405180910390fd5b600060066000848152602001908152602001600020600401546006600085815260200190815260200160002060030154610aaa9190612133565b90506004811015610af0576040517f08c379a0000000000000000000000000000000000000000000000000000000008152600401610ae7906121f8565b60405180910390fd5b600660008481526020019081526020016000206004015460066000858152602001908152602001600020600301541115610b2e576001915050610b34565b60009150505b919050565b600160009054906101000a900473ffffffffffffffffffffffffffffffffffffffff1681565b60035481565b60606000600a8054905067ffffffffffffffff811115610b8857610b8761154a565b5b604051908082528060200260200182016040528015610bc157816020015b610bae6112ec565b815260200190600190039081610ba65790505b50905060005b600a80549050811015610d715760066000600a8381548110610bec57610beb612218565b5b90600052602060002001548152602001908152602001600020604051806101000160405290816000820160009054906101000a900473ffffffffffffffffffffffffffffffffffffffff1673ffffffffffffffffffffffffffffffffffffffff1673ffffffffffffffffffffffffffffffffffffffff16815260200160018201548152602001600282018054610c8190611b10565b80601f0160208091040260200160405190810160405280929190818152602001828054610cad90611b10565b8015610cfa5780601f10610ccf57610100808354040283529160200191610cfa565b820191906000526020600020905b815481529060010190602001808311610cdd57829003601f168201915b505050505081526020016003820154815260200160048201548152602001600582015481526020016006820160009054906101000a900460ff16151515158152602001600782015481525050828281518110610d5957610d58612218565b5b60200260200101819052508080600101915050610bc7565b508091505090565b80600660008381526020019081526020016000206001015414610dd1576040517f08c379a0000000000000000000000000000000000000000000000000000000008152600401610dc890611f14565b60405180910390fd5b600060066000838152602001908152602001600020600401546006600084815260200190815260200160002060030154610e0b9190612133565b90506004811015610e51576040517f08c379a0000000000000000000000000000000000000000000000000000000008152600401610e48906121f8565b60405180910390fd5b600660008381526020019081526020016000206004015460066000848152602001908152602001600020600301541115610f6857600860009054906101000a900473ffffffffffffffffffffffffffffffffffffffff1673ffffffffffffffffffffffffffffffffffffffff1663a694c98d60016006600086815260200190815260200160002060000160009054906101000a900473ffffffffffffffffffffffffffffffffffffffff1660066000878152602001908152602001600020600701546040518463ffffffff1660e01b8152600401610f3193929190612247565b600060405180830381600087803b158015610f4b57600080fd5b505af1158015610f5f573d6000803e3d6000fd5b50505050611047565b600860009054906101000a900473ffffffffffffffffffffffffffffffffffffffff1673ffffffffffffffffffffffffffffffffffffffff1663a694c98d60006006600086815260200190815260200160002060000160009054906101000a900473ffffffffffffffffffffffffffffffffffffffff1660066000878152602001908152602001600020600701546040518463ffffffff1660e01b815260040161101493929190612247565b600060405180830381600087803b15801561102e57600080fd5b505af1158015611042573d6000803e3d6000fd5b505050505b5050565b60025481565b600860009054906101000a900473ffffffffffffffffffffffffffffffffffffffff1681565b6003543410156110bc576040517f08c379a00000000000000000000000000000000000000000000000000000000081526004016110b3906122f0565b60405180910390fd5b600560003373ffffffffffffffffffffffffffffffffffffffff1673ffffffffffffffffffffffffffffffffffffffff16815260200190815260200160002060009054906101000a900460ff1615611149576040517f08c379a00000000000000000000000000000000000000000000000000000000081526004016111409061235c565b60405180910390fd5b6004339080600181540180825580915050600190039060005260206000200160009091909190916101000a81548173ffffffffffffffffffffffffffffffffffffffff021916908373ffffffffffffffffffffffffffffffffffffffff1602179055506001600560003373ffffffffffffffffffffffffffffffffffffffff1673ffffffffffffffffffffffffffffffffffffffff16815260200190815260200160002060006101000a81548160ff0219169083151502179055503373ffffffffffffffffffffffffffffffffffffffff167f70b6d027ae4d0cf7c852181925ea65e295b17bb27ad98c236d23b80fda726f1f60405160405180910390a2565b7f000000000000000000000000000000000000000000000000000000000000000081565b600960009054906101000a900473ffffffffffffffffffffffffffffffffffffffff1681565b6002600054036112d8576040517f08c379a00000000000000000000000000000000000000000000000000000000081526004016112cf906123c8565b60405180910390fd5b6002600081905550565b6001600081905550565b604051806101000160405280600073ffffffffffffffffffffffffffffffffffffffff1681526020016000815260200160608152602001600081526020016000815260200160008152602001600015158152602001600081525090565b6000604051905090565b600080fd5b600080fd5b6000819050919050565b6113708161135d565b811461137b57600080fd5b50565b60008135905061138d81611367565b92915050565b6000602082840312156113a9576113a8611353565b5b60006113b78482850161137e565b91505092915050565b600073ffffffffffffffffffffffffffffffffffffffff82169050919050565b60006113eb826113c0565b9050919050565b6113fb816113e0565b82525050565b61140a8161135d565b82525050565b600081519050919050565b600082825260208201905092915050565b60005b8381101561144a57808201518184015260208101905061142f565b60008484015250505050565b6000601f19601f8301169050919050565b600061147282611410565b61147c818561141b565b935061148c81856020860161142c565b61149581611456565b840191505092915050565b60008115159050919050565b6114b5816114a0565b82525050565b6000610100820190506114d1600083018b6113f2565b6114de602083018a611401565b81810360408301526114f08189611467565b90506114ff6060830188611401565b61150c6080830187611401565b61151960a0830186611401565b61152660c08301856114ac565b61153360e0830184611401565b9998505050505050505050565b600080fd5b600080fd5b7f4e487b7100000000000000000000000000000000000000000000000000000000600052604160045260246000fd5b61158282611456565b810181811067ffffffffffffffff821117156115a1576115a061154a565b5b80604052505050565b60006115b4611349565b90506115c08282611579565b919050565b600067ffffffffffffffff8211156115e0576115df61154a565b5b6115e982611456565b9050602081019050919050565b82818337600083830152505050565b6000611618611613846115c5565b6115aa565b90508281526020810184848401111561163457611633611545565b5b61163f8482856115f6565b509392505050565b600082601f83011261165c5761165b611540565b5b813561166c848260208601611605565b91505092915050565b60008060006060848603121561168e5761168d611353565b5b600084013567ffffffffffffffff8111156116ac576116ab611358565b5b6116b886828701611647565b93505060206116c98682870161137e565b92505060406116da8682870161137e565b9150509250925092565b6116ed816114a0565b81146116f857600080fd5b50565b60008135905061170a816116e4565b92915050565b60008060006060848603121561172957611728611353565b5b60006117378682870161137e565b9350506020611748868287016116fb565b92505060406117598682870161137e565b9150509250925092565b61176c816113e0565b811461177757600080fd5b50565b60008135905061178981611763565b92915050565b600080604083850312156117a6576117a5611353565b5b60006117b48582860161177a565b92505060206117c58582860161137e565b9150509250929050565b60006020820190506117e460008301846114ac565b92915050565b60006020820190506117ff60008301846113f2565b92915050565b600060208201905061181a6000830184611401565b92915050565b600081519050919050565b600082825260208201905092915050565b6000819050602082019050919050565b611855816113e0565b82525050565b6118648161135d565b82525050565b600082825260208201905092915050565b600061188682611410565b611890818561186a565b93506118a081856020860161142c565b6118a981611456565b840191505092915050565b6118bd816114a0565b82525050565b6000610100830160008301516118dc600086018261184c565b5060208301516118ef602086018261185b565b5060408301518482036040860152611907828261187b565b915050606083015161191c606086018261185b565b50608083015161192f608086018261185b565b5060a083015161194260a086018261185b565b5060c083015161195560c08601826118b4565b5060e083015161196860e086018261185b565b508091505092915050565b600061197f83836118c3565b905092915050565b6000602082019050919050565b600061199f82611820565b6119a9818561182b565b9350836020820285016119bb8561183c565b8060005b858110156119f757848403895281516119d88582611973565b94506119e383611987565b925060208a019950506001810190506119bf565b50829750879550505050505092915050565b60006020820190508181036000830152611a238184611994565b905092915050565b6000819050919050565b6000611a50611a4b611a46846113c0565b611a2b565b6113c0565b9050919050565b6000611a6282611a35565b9050919050565b6000611a7482611a57565b9050919050565b611a8481611a69565b82525050565b6000602082019050611a9f6000830184611a7b565b92915050565b6000611ab082611a57565b9050919050565b611ac081611aa5565b82525050565b6000602082019050611adb6000830184611ab7565b92915050565b7f4e487b7100000000000000000000000000000000000000000000000000000000600052602260045260246000fd5b60006002820490506001821680611b2857607f821691505b602082108103611b3b57611b3a611ae1565b5b50919050565b7f4e6f7420656e6f75676820657468000000000000000000000000000000000000600082015250565b6000611b77600e8361141b565b9150611b8282611b41565b602082019050919050565b60006020820190508181036000830152611ba681611b6a565b9050919050565b7f4e487b7100000000000000000000000000000000000000000000000000000000600052601160045260246000fd5b6000611be78261135d565b91507fffffffffffffffffffffffffffffffffffffffffffffffffffffffffffffffff8203611c1957611c18611bad565b5b600182019050919050565b60008190508160005260206000209050919050565b60006020601f8301049050919050565b600082821b905092915050565b600060088302611c867fffffffffffffffffffffffffffffffffffffffffffffffffffffffffffffffff82611c49565b611c908683611c49565b95508019841693508086168417925050509392505050565b6000611cc3611cbe611cb98461135d565b611a2b565b61135d565b9050919050565b6000819050919050565b611cdd83611ca8565b611cf1611ce982611cca565b848454611c56565b825550505050565b600090565b611d06611cf9565b611d11818484611cd4565b505050565b5b81811015611d3557611d2a600082611cfe565b600181019050611d17565b5050565b601f821115611d7a57611d4b81611c24565b611d5484611c39565b81016020851015611d63578190505b611d77611d6f85611c39565b830182611d16565b50505b505050565b600082821c905092915050565b6000611d9d60001984600802611d7f565b1980831691505092915050565b6000611db68383611d8c565b9150826002028217905092915050565b611dcf82611410565b67ffffffffffffffff811115611de857611de761154a565b5b611df28254611b10565b611dfd828285611d39565b600060209050601f831160018114611e305760008415611e1e578287015190505b611e288582611daa565b865550611e90565b601f198416611e3e86611c24565b60005b82811015611e6657848901518255600182019150602085019450602081019050611e41565b86831015611e835784890151611e7f601f891682611d8c565b8355505b6001600288020188555050505b505050505050565b6000604082019050611ead6000830185611401565b8181036020830152611ebf8184611467565b90509392505050565b7f50726f706f73616c20646f6573206e6f74206578697374000000000000000000600082015250565b6000611efe60178361141b565b9150611f0982611ec8565b602082019050919050565b60006020820190508181036000830152611f2d81611ef1565b9050919050565b7f416c726561647920766f74656400000000000000000000000000000000000000600082015250565b6000611f6a600d8361141b565b9150611f7582611f34565b602082019050919050565b60006020820190508181036000830152611f9981611f5d565b9050919050565b600081519050611faf81611367565b92915050565b600060208284031215611fcb57611fca611353565b5b6000611fd984828501611fa0565b91505092915050565b7f4e6f7420656e6f75676820746f6b656e7320746f20766f746500000000000000600082015250565b600061201860198361141b565b915061202382611fe2565b602082019050919050565b600060208201905081810360008301526120478161200b565b9050919050565b600060608201905061206360008301866113f2565b61207060208301856113f2565b61207d6040830184611401565b949350505050565b600081519050612094816116e4565b92915050565b6000602082840312156120b0576120af611353565b5b60006120be84828501612085565b91505092915050565b7f546f6b656e207472616e73666572206661696c65640000000000000000000000600082015250565b60006120fd60158361141b565b9150612108826120c7565b602082019050919050565b6000602082019050818103600083015261212c816120f0565b9050919050565b600061213e8261135d565b91506121498361135d565b925082820190508082111561216157612160611bad565b5b92915050565b600060808201905061217c6000830187611401565b61218960208301866113f2565b61219660408301856114ac565b6121a36060830184611401565b95945050505050565b7f4e6f7420656e6f75676820766f74657320746f2070726f636573730000000000600082015250565b60006121e2601b8361141b565b91506121ed826121ac565b602082019050919050565b60006020820190508181036000830152612211816121d5565b9050919050565b7f4e487b7100000000000000000000000000000000000000000000000000000000600052603260045260246000fd5b600060608201905061225c60008301866114ac565b61226960208301856113f2565b6122766040830184611401565b949350505050565b7f4469646e742073656e6420656e6f7567682066656520746f206a6f696e20444160008201527f4f00000000000000000000000000000000000000000000000000000000000000602082015250565b60006122da60218361141b565b91506122e58261227e565b604082019050919050565b60006020820190508181036000830152612309816122cd565b9050919050565b7f616c726561647920612044414f206d656d626572000000000000000000000000600082015250565b600061234660148361141b565b915061235182612310565b602082019050919050565b6000602082019050818103600083015261237581612339565b9050919050565b7f5265656e7472616e637947756172643a207265656e7472616e742063616c6c00600082015250565b60006123b2601f8361141b565b91506123bd8261237c565b602082019050919050565b600060208201905081810360008301526123e1816123a5565b905091905056fea26469706673582212208a3ea9e4e3df02ac242645eadefe7f1b8f61cdc1e1f17a5eb4d2ac97fb8820d564736f6c634300081c0033",
  "devdoc": {
    "kind": "dev",
    "methods": {},
    "version": 1
  },
  "userdoc": {
    "kind": "user",
    "methods": {},
    "version": 1
  },
  "storageLayout": {
    "storage": [
      {
        "astId": 123,
        "contract": "contracts/DAO.sol:InsuranceDAO",
        "label": "_status",
        "offset": 0,
        "slot": "0",
        "type": "t_uint256"
      },
      {
        "astId": 901,
        "contract": "contracts/DAO.sol:InsuranceDAO",
        "label": "owner",
        "offset": 0,
        "slot": "1",
        "type": "t_address"
      },
      {
        "astId": 903,
        "contract": "contracts/DAO.sol:InsuranceDAO",
        "label": "proposalCount",
        "offset": 0,
        "slot": "2",
        "type": "t_uint256"
      },
      {
        "astId": 905,
        "contract": "contracts/DAO.sol:InsuranceDAO",
        "label": "FEE",
        "offset": 0,
        "slot": "3",
        "type": "t_uint256"
      },
      {
        "astId": 925,
        "contract": "contracts/DAO.sol:InsuranceDAO",
        "label": "DAO_Members",
        "offset": 0,
        "slot": "4",
        "type": "t_array(t_address)dyn_storage"
      },
      {
        "astId": 929,
        "contract": "contracts/DAO.sol:InsuranceDAO",
        "label": "isDAOMember",
        "offset": 0,
        "slot": "5",
        "type": "t_mapping(t_address,t_bool)"
      },
      {
        "astId": 934,
        "contract": "contracts/DAO.sol:InsuranceDAO",
        "label": "proposals",
        "offset": 0,
        "slot": "6",
        "type": "t_mapping(t_uint256,t_struct(Proposal)922_storage)"
      },
      {
        "astId": 940,
        "contract": "contracts/DAO.sol:InsuranceDAO",
        "label": "hasVoted",
        "offset": 0,
        "slot": "7",
        "type": "t_mapping(t_address,t_mapping(t_uint256,t_bool))"
      },
      {
        "astId": 981,
        "contract": "contracts/DAO.sol:InsuranceDAO",
        "label": "master",
        "offset": 0,
        "slot": "8",
        "type": "t_contract(masterContract)2329"
      },
      {
        "astId": 984,
        "contract": "contracts/DAO.sol:InsuranceDAO",
        "label": "token",
        "offset": 0,
        "slot": "9",
        "type": "t_contract(AgroCoin)1422"
      },
      {
        "astId": 987,
        "contract": "contracts/DAO.sol:InsuranceDAO",
        "label": "proposalLength",
        "offset": 0,
        "slot": "10",
        "type": "t_array(t_uint256)dyn_storage"
      }
    ],
    "types": {
      "t_address": {
        "encoding": "inplace",
        "label": "address",
        "numberOfBytes": "20"
      },
      "t_array(t_address)dyn_storage": {
        "base": "t_address",
        "encoding": "dynamic_array",
        "label": "address[]",
        "numberOfBytes": "32"
      },
      "t_array(t_uint256)dyn_storage": {
        "base": "t_uint256",
        "encoding": "dynamic_array",
        "label": "uint256[]",
        "numberOfBytes": "32"
      },
      "t_bool": {
        "encoding": "inplace",
        "label": "bool",
        "numberOfBytes": "1"
      },
      "t_contract(AgroCoin)1422": {
        "encoding": "inplace",
        "label": "contract AgroCoin",
        "numberOfBytes": "20"
      },
      "t_contract(masterContract)2329": {
        "encoding": "inplace",
        "label": "contract masterContract",
        "numberOfBytes": "20"
      },
      "t_mapping(t_address,t_bool)": {
        "encoding": "mapping",
        "key": "t_address",
        "label": "mapping(address => bool)",
        "numberOfBytes": "32",
        "value": "t_bool"
      },
      "t_mapping(t_address,t_mapping(t_uint256,t_bool))": {
        "encoding": "mapping",
        "key": "t_address",
        "label": "mapping(address => mapping(uint256 => bool))",
        "numberOfBytes": "32",
        "value": "t_mapping(t_uint256,t_bool)"
      },
      "t_mapping(t_uint256,t_bool)": {
        "encoding": "mapping",
        "key": "t_uint256",
        "label": "mapping(uint256 => bool)",
        "numberOfBytes": "32",
        "value": "t_bool"
      },
      "t_mapping(t_uint256,t_struct(Proposal)922_storage)": {
        "encoding": "mapping",
        "key": "t_uint256",
        "label": "mapping(uint256 => struct InsuranceDAO.Proposal)",
        "numberOfBytes": "32",
        "value": "t_struct(Proposal)922_storage"
      },
      "t_string_storage": {
        "encoding": "bytes",
        "label": "string",
        "numberOfBytes": "32"
      },
      "t_struct(Proposal)922_storage": {
        "encoding": "inplace",
        "label": "struct InsuranceDAO.Proposal",
        "members": [
          {
            "astId": 907,
            "contract": "contracts/DAO.sol:InsuranceDAO",
            "label": "proposer",
            "offset": 0,
            "slot": "0",
            "type": "t_address"
          },
          {
            "astId": 909,
            "contract": "contracts/DAO.sol:InsuranceDAO",
            "label": "id",
            "offset": 0,
            "slot": "1",
            "type": "t_uint256"
          },
          {
            "astId": 911,
            "contract": "contracts/DAO.sol:InsuranceDAO",
            "label": "description",
            "offset": 0,
            "slot": "2",
            "type": "t_string_storage"
          },
          {
            "astId": 913,
            "contract": "contracts/DAO.sol:InsuranceDAO",
            "label": "votesFor",
            "offset": 0,
            "slot": "3",
            "type": "t_uint256"
          },
          {
            "astId": 915,
            "contract": "contracts/DAO.sol:InsuranceDAO",
            "label": "votesAgainst",
            "offset": 0,
            "slot": "4",
            "type": "t_uint256"
          },
          {
            "astId": 917,
            "contract": "contracts/DAO.sol:InsuranceDAO",
            "label": "insuranceType",
            "offset": 0,
            "slot": "5",
            "type": "t_uint256"
          },
          {
            "astId": 919,
            "contract": "contracts/DAO.sol:InsuranceDAO",
            "label": "executed",
            "offset": 0,
            "slot": "6",
            "type": "t_bool"
          },
          {
            "astId": 921,
            "contract": "contracts/DAO.sol:InsuranceDAO",
            "label": "amountToBeSetteled",
            "offset": 0,
            "slot": "7",
            "type": "t_uint256"
          }
        ],
        "numberOfBytes": "256"
      },
      "t_uint256": {
        "encoding": "inplace",
        "label": "uint256",
        "numberOfBytes": "32"
      }
    }
  }
}