{
  "address": "0xc43a44eec2ABCeb03f59a2f6E78156165A1C6E99",
  "abi": [
    {
      "inputs": [
        {
          "internalType": "address",
          "name": "_governanceToken",
          "type": "address"
        },
        {
          "internalType": "uint256",
          "name": "_fee",
          "type": "uint256"
        },
        {
          "internalType": "address",
          "name": "_a",
          "type": "address"
        }
      ],
      "stateMutability": "nonpayable",
      "type": "constructor"
    },
    {
      "anonymous": false,
      "inputs": [
        {
          "indexed": true,
          "internalType": "address",
          "name": "user",
          "type": "address"
        }
      ],
      "name": "DAO_Joined",
      "type": "event"
    },
    {
      "anonymous": false,
      "inputs": [
        {
          "indexed": false,
          "internalType": "uint256",
          "name": "id",
          "type": "uint256"
        },
        {
          "indexed": false,
          "internalType": "string",
          "name": "description",
          "type": "string"
        }
      ],
      "name": "ProposalCreated",
      "type": "event"
    },
    {
      "anonymous": false,
      "inputs": [
        {
          "indexed": false,
          "internalType": "uint256",
          "name": "id",
          "type": "uint256"
        },
        {
          "indexed": false,
          "internalType": "bool",
          "name": "passed",
          "type": "bool"
        }
      ],
      "name": "ProposalExecuted",
      "type": "event"
    },
    {
      "anonymous": false,
      "inputs": [
        {
          "indexed": false,
          "internalType": "uint256",
          "name": "proposalId",
          "type": "uint256"
        },
        {
          "indexed": false,
          "internalType": "address",
          "name": "voter",
          "type": "address"
        },
        {
          "indexed": false,
          "internalType": "bool",
          "name": "voteFor",
          "type": "bool"
        },
        {
          "indexed": false,
          "internalType": "uint256",
          "name": "amount",
          "type": "uint256"
        }
      ],
      "name": "Voted",
      "type": "event"
    },
    {
      "inputs": [],
      "name": "FEE",
      "outputs": [
        {
          "internalType": "uint256",
          "name": "",
          "type": "uint256"
        }
      ],
      "stateMutability": "view",
      "type": "function"
    },
    {
      "inputs": [
        {
          "internalType": "string",
          "name": "description",
          "type": "string"
        },
        {
          "internalType": "uint256",
          "name": "_insuranceType",
          "type": "uint256"
        },
        {
          "internalType": "uint256",
          "name": "_amountToBeSetteled",
          "type": "uint256"
        }
      ],
      "name": "createProposal",
      "outputs": [],
      "stateMutability": "payable",
      "type": "function"
    },
    {
      "inputs": [],
      "name": "governanceToken",
      "outputs": [
        {
          "internalType": "address",
          "name": "",
          "type": "address"
        }
      ],
      "stateMutability": "view",
      "type": "function"
    },
    {
      "inputs": [
        {
          "internalType": "address",
          "name": "",
          "type": "address"
        },
        {
          "internalType": "uint256",
          "name": "",
          "type": "uint256"
        }
      ],
      "name": "hasVoted",
      "outputs": [
        {
          "internalType": "bool",
          "name": "",
          "type": "bool"
        }
      ],
      "stateMutability": "view",
      "type": "function"
    },
    {
      "inputs": [],
      "name": "joinDAO",
      "outputs": [],
      "stateMutability": "payable",
      "type": "function"
    },
    {
      "inputs": [],
      "name": "master",
      "outputs": [
        {
          "internalType": "contract masterContract",
          "name": "",
          "type": "address"
        }
      ],
      "stateMutability": "view",
      "type": "function"
    },
    {
      "inputs": [],
      "name": "owner",
      "outputs": [
        {
          "internalType": "address",
          "name": "",
          "type": "address"
        }
      ],
      "stateMutability": "view",
      "type": "function"
    },
    {
      "inputs": [
        {
          "internalType": "uint256",
          "name": "proposalId",
          "type": "uint256"
        }
      ],
      "name": "processPassedProposals",
      "outputs": [],
      "stateMutability": "nonpayable",
      "type": "function"
    },
    {
      "inputs": [],
      "name": "proposalCount",
      "outputs": [
        {
          "internalType": "uint256",
          "name": "",
          "type": "uint256"
        }
      ],
      "stateMutability": "view",
      "type": "function"
    },
    {
      "inputs": [
        {
          "internalType": "uint256",
          "name": "",
          "type": "uint256"
        }
      ],
      "name": "proposals",
      "outputs": [
        {
          "internalType": "address",
          "name": "proposer",
          "type": "address"
        },
        {
          "internalType": "uint256",
          "name": "id",
          "type": "uint256"
        },
        {
          "internalType": "string",
          "name": "description",
          "type": "string"
        },
        {
          "internalType": "uint256",
          "name": "votesFor",
          "type": "uint256"
        },
        {
          "internalType": "uint256",
          "name": "votesAgainst",
          "type": "uint256"
        },
        {
          "internalType": "uint256",
          "name": "insuranceType",
          "type": "uint256"
        },
        {
          "internalType": "bool",
          "name": "executed",
          "type": "bool"
        },
        {
          "internalType": "uint256",
          "name": "amountToBeSetteled",
          "type": "uint256"
        }
      ],
      "stateMutability": "view",
      "type": "function"
    },
    {
      "inputs": [],
      "name": "token",
      "outputs": [
        {
          "internalType": "contract AgroCoin",
          "name": "",
          "type": "address"
        }
      ],
      "stateMutability": "view",
      "type": "function"
    },
    {
      "inputs": [
        {
          "internalType": "uint256",
          "name": "proposalId",
          "type": "uint256"
        },
        {
          "internalType": "bool",
          "name": "voteFor",
          "type": "bool"
        },
        {
          "internalType": "uint256",
          "name": "amount",
          "type": "uint256"
        }
      ],
      "name": "voteOnProposal",
      "outputs": [],
      "stateMutability": "nonpayable",
      "type": "function"
    }
  ],
  "transactionHash": "0x826f51814fed6bede051255c59d5581658912869b09df5e6c013611a71ea03f5",
  "args": [
    "0xa062e4bc4039b697897211D43e90fA548b269D48",
    "500000000000000000",
    "0x58d83F0973F8538d64F262C4F8E1C91f403650Dc"
  ],
  "numDeployments": 1,
  "solcInputHash": "e3cb9f5f439e59127a1cdd6ba662d211",
  "bytecode": "0x60a060405234801561001057600080fd5b50604051611fb8380380611fb883398181016040528101906100329190610198565b60016000819055508273ffffffffffffffffffffffffffffffffffffffff1660808173ffffffffffffffffffffffffffffffffffffffff168152505033600160006101000a81548173ffffffffffffffffffffffffffffffffffffffff021916908373ffffffffffffffffffffffffffffffffffffffff1602179055508160038190555080600860006101000a81548173ffffffffffffffffffffffffffffffffffffffff021916908373ffffffffffffffffffffffffffffffffffffffff1602179055505050506101eb565b600080fd5b600073ffffffffffffffffffffffffffffffffffffffff82169050919050565b600061012f82610104565b9050919050565b61013f81610124565b811461014a57600080fd5b50565b60008151905061015c81610136565b92915050565b6000819050919050565b61017581610162565b811461018057600080fd5b50565b6000815190506101928161016c565b92915050565b6000806000606084860312156101b1576101b06100ff565b5b60006101bf8682870161014d565b93505060206101d086828701610183565b92505060406101e18682870161014d565b9150509250925092565b608051611dab61020d600039600081816106610152610e6f0152611dab6000f3fe6080604052600436106100a75760003560e01c8063d3506f3d11610064578063d3506f3d146101c8578063da35c664146101f1578063ee97f7f31461021c578063f63d13d714610247578063f96dae0a14610251578063fc0c546a1461027c576100a7565b8063013cf08b146100ac57806322e2e12d146100f05780633106fea01461010c57806342545825146101355780638da5cb5b14610172578063c57981b51461019d575b600080fd5b3480156100b857600080fd5b506100d360048036038101906100ce9190610f5a565b6102a7565b6040516100e7989796959493929190611082565b60405180910390f35b61010a6004803603810190610105919061123c565b6103a4565b005b34801561011857600080fd5b50610133600480360381019061012e91906112d7565b61055f565b005b34801561014157600080fd5b5061015c60048036038101906101579190611356565b61091e565b6040516101699190611396565b60405180910390f35b34801561017e57600080fd5b5061018761094d565b60405161019491906113b1565b60405180910390f35b3480156101a957600080fd5b506101b2610973565b6040516101bf91906113cc565b60405180910390f35b3480156101d457600080fd5b506101ef60048036038101906101ea9190610f5a565b610979565b005b3480156101fd57600080fd5b50610206610c6f565b60405161021391906113cc565b60405180910390f35b34801561022857600080fd5b50610231610c75565b60405161023e9190611446565b60405180910390f35b61024f610c9b565b005b34801561025d57600080fd5b50610266610e6d565b60405161027391906113b1565b60405180910390f35b34801561028857600080fd5b50610291610e91565b60405161029e9190611482565b60405180910390f35b60066020528060005260406000206000915090508060000160009054906101000a900473ffffffffffffffffffffffffffffffffffffffff16908060010154908060020180546102f6906114cc565b80601f0160208091040260200160405190810160405280929190818152602001828054610322906114cc565b801561036f5780601f106103445761010080835404028352916020019161036f565b820191906000526020600020905b81548152906001019060200180831161035257829003601f168201915b5050505050908060030154908060040154908060050154908060060160009054906101000a900460ff16908060070154905088565b6003543410156103e9576040517f08c379a00000000000000000000000000000000000000000000000000000000081526004016103e090611549565b60405180910390fd5b600260008154809291906103fc90611598565b91905055506040518061010001604052803373ffffffffffffffffffffffffffffffffffffffff168152602001600254815260200184815260200160008152602001600081526020018381526020016000151581526020018281525060066000600254815260200190815260200160002060008201518160000160006101000a81548173ffffffffffffffffffffffffffffffffffffffff021916908373ffffffffffffffffffffffffffffffffffffffff1602179055506020820151816001015560408201518160020190816104d39190611782565b50606082015181600301556080820151816004015560a0820151816005015560c08201518160060160006101000a81548160ff02191690831515021790555060e082015181600701559050507f9c770c289ab5bf7e57cb1d23c8ceae993aea46eb64847072fd3d78ca60d3e43260025484604051610552929190611854565b60405180910390a1505050565b610567610eb7565b826006600085815260200190815260200160002060010154146105bf576040517f08c379a00000000000000000000000000000000000000000000000000000000081526004016105b6906118d0565b60405180910390fd5b600760003373ffffffffffffffffffffffffffffffffffffffff1673ffffffffffffffffffffffffffffffffffffffff168152602001908152602001600020600084815260200190815260200160002060009054906101000a900460ff161561065d576040517f08c379a00000000000000000000000000000000000000000000000000000000081526004016106549061193c565b60405180910390fd5b60007f00000000000000000000000000000000000000000000000000000000000000009050818173ffffffffffffffffffffffffffffffffffffffff166370a08231336040518263ffffffff1660e01b81526004016106bc91906113b1565b602060405180830381865afa1580156106d9573d6000803e3d6000fd5b505050506040513d601f19601f820116820180604052508101906106fd9190611971565b101561073e576040517f08c379a0000000000000000000000000000000000000000000000000000000008152600401610735906119ea565b60405180910390fd5b8073ffffffffffffffffffffffffffffffffffffffff166323b872dd3330856040518463ffffffff1660e01b815260040161077b93929190611a0a565b6020604051808303816000875af115801561079a573d6000803e3d6000fd5b505050506040513d601f19601f820116820180604052508101906107be9190611a56565b6107fd576040517f08c379a00000000000000000000000000000000000000000000000000000000081526004016107f490611acf565b60405180910390fd5b821561083557816006600086815260200190815260200160002060030160008282546108299190611aef565b92505081905550610863565b8160066000868152602001908152602001600020600401600082825461085b9190611aef565b925050819055505b6001600760003373ffffffffffffffffffffffffffffffffffffffff1673ffffffffffffffffffffffffffffffffffffffff168152602001908152602001600020600086815260200190815260200160002060006101000a81548160ff0219169083151502179055506000600490507f7c2de587c00d75474a0c6c6fa96fd3b45dc974cd4e8a75f712bb84c950dce1b5853386866040516109079493929190611b23565b60405180910390a15050610919610f06565b505050565b60076020528160005260406000206020528060005260406000206000915091509054906101000a900460ff1681565b600160009054906101000a900473ffffffffffffffffffffffffffffffffffffffff1681565b60035481565b806006600083815260200190815260200160002060010154146109d1576040517f08c379a00000000000000000000000000000000000000000000000000000000081526004016109c8906118d0565b60405180910390fd5b600060066000838152602001908152602001600020600401546006600084815260200190815260200160002060030154610a0b9190611aef565b90506004811015610a51576040517f08c379a0000000000000000000000000000000000000000000000000000000008152600401610a4890611bb4565b60405180910390fd5b600660008381526020019081526020016000206004015460066000848152602001908152602001600020600301541115610b7a57600860009054906101000a900473ffffffffffffffffffffffffffffffffffffffff1673ffffffffffffffffffffffffffffffffffffffff1663a694c98d60016006600086815260200190815260200160002060000160009054906101000a900473ffffffffffffffffffffffffffffffffffffffff1660066000878152602001908152602001600020600701546040518463ffffffff1660e01b8152600401610b3193929190611bd4565b6020604051808303816000875af1158015610b50573d6000803e3d6000fd5b505050506040513d601f19601f82011682018060405250810190610b749190611a56565b50610c6b565b600860009054906101000a900473ffffffffffffffffffffffffffffffffffffffff1673ffffffffffffffffffffffffffffffffffffffff1663a694c98d60006006600086815260200190815260200160002060000160009054906101000a900473ffffffffffffffffffffffffffffffffffffffff1660066000878152602001908152602001600020600701546040518463ffffffff1660e01b8152600401610c2693929190611bd4565b6020604051808303816000875af1158015610c45573d6000803e3d6000fd5b505050506040513d601f19601f82011682018060405250810190610c699190611a56565b505b5050565b60025481565b600860009054906101000a900473ffffffffffffffffffffffffffffffffffffffff1681565b600354341015610ce0576040517f08c379a0000000000000000000000000000000000000000000000000000000008152600401610cd790611c7d565b60405180910390fd5b600560003373ffffffffffffffffffffffffffffffffffffffff1673ffffffffffffffffffffffffffffffffffffffff16815260200190815260200160002060009054906101000a900460ff1615610d6d576040517f08c379a0000000000000000000000000000000000000000000000000000000008152600401610d6490611ce9565b60405180910390fd5b6004339080600181540180825580915050600190039060005260206000200160009091909190916101000a81548173ffffffffffffffffffffffffffffffffffffffff021916908373ffffffffffffffffffffffffffffffffffffffff1602179055506001600560003373ffffffffffffffffffffffffffffffffffffffff1673ffffffffffffffffffffffffffffffffffffffff16815260200190815260200160002060006101000a81548160ff0219169083151502179055503373ffffffffffffffffffffffffffffffffffffffff167f70b6d027ae4d0cf7c852181925ea65e295b17bb27ad98c236d23b80fda726f1f60405160405180910390a2565b7f000000000000000000000000000000000000000000000000000000000000000081565b600960009054906101000a900473ffffffffffffffffffffffffffffffffffffffff1681565b600260005403610efc576040517f08c379a0000000000000000000000000000000000000000000000000000000008152600401610ef390611d55565b60405180910390fd5b6002600081905550565b6001600081905550565b6000604051905090565b600080fd5b600080fd5b6000819050919050565b610f3781610f24565b8114610f4257600080fd5b50565b600081359050610f5481610f2e565b92915050565b600060208284031215610f7057610f6f610f1a565b5b6000610f7e84828501610f45565b91505092915050565b600073ffffffffffffffffffffffffffffffffffffffff82169050919050565b6000610fb282610f87565b9050919050565b610fc281610fa7565b82525050565b610fd181610f24565b82525050565b600081519050919050565b600082825260208201905092915050565b60005b83811015611011578082015181840152602081019050610ff6565b60008484015250505050565b6000601f19601f8301169050919050565b600061103982610fd7565b6110438185610fe2565b9350611053818560208601610ff3565b61105c8161101d565b840191505092915050565b60008115159050919050565b61107c81611067565b82525050565b600061010082019050611098600083018b610fb9565b6110a5602083018a610fc8565b81810360408301526110b7818961102e565b90506110c66060830188610fc8565b6110d36080830187610fc8565b6110e060a0830186610fc8565b6110ed60c0830185611073565b6110fa60e0830184610fc8565b9998505050505050505050565b600080fd5b600080fd5b7f4e487b7100000000000000000000000000000000000000000000000000000000600052604160045260246000fd5b6111498261101d565b810181811067ffffffffffffffff8211171561116857611167611111565b5b80604052505050565b600061117b610f10565b90506111878282611140565b919050565b600067ffffffffffffffff8211156111a7576111a6611111565b5b6111b08261101d565b9050602081019050919050565b82818337600083830152505050565b60006111df6111da8461118c565b611171565b9050828152602081018484840111156111fb576111fa61110c565b5b6112068482856111bd565b509392505050565b600082601f83011261122357611222611107565b5b81356112338482602086016111cc565b91505092915050565b60008060006060848603121561125557611254610f1a565b5b600084013567ffffffffffffffff81111561127357611272610f1f565b5b61127f8682870161120e565b935050602061129086828701610f45565b92505060406112a186828701610f45565b9150509250925092565b6112b481611067565b81146112bf57600080fd5b50565b6000813590506112d1816112ab565b92915050565b6000806000606084860312156112f0576112ef610f1a565b5b60006112fe86828701610f45565b935050602061130f868287016112c2565b925050604061132086828701610f45565b9150509250925092565b61133381610fa7565b811461133e57600080fd5b50565b6000813590506113508161132a565b92915050565b6000806040838503121561136d5761136c610f1a565b5b600061137b85828601611341565b925050602061138c85828601610f45565b9150509250929050565b60006020820190506113ab6000830184611073565b92915050565b60006020820190506113c66000830184610fb9565b92915050565b60006020820190506113e16000830184610fc8565b92915050565b6000819050919050565b600061140c61140761140284610f87565b6113e7565b610f87565b9050919050565b600061141e826113f1565b9050919050565b600061143082611413565b9050919050565b61144081611425565b82525050565b600060208201905061145b6000830184611437565b92915050565b600061146c82611413565b9050919050565b61147c81611461565b82525050565b60006020820190506114976000830184611473565b92915050565b7f4e487b7100000000000000000000000000000000000000000000000000000000600052602260045260246000fd5b600060028204905060018216806114e457607f821691505b6020821081036114f7576114f661149d565b5b50919050565b7f4e6f7420656e6f75676820657468000000000000000000000000000000000000600082015250565b6000611533600e83610fe2565b915061153e826114fd565b602082019050919050565b6000602082019050818103600083015261156281611526565b9050919050565b7f4e487b7100000000000000000000000000000000000000000000000000000000600052601160045260246000fd5b60006115a382610f24565b91507fffffffffffffffffffffffffffffffffffffffffffffffffffffffffffffffff82036115d5576115d4611569565b5b600182019050919050565b60008190508160005260206000209050919050565b60006020601f8301049050919050565b600082821b905092915050565b6000600883026116427fffffffffffffffffffffffffffffffffffffffffffffffffffffffffffffffff82611605565b61164c8683611605565b95508019841693508086168417925050509392505050565b600061167f61167a61167584610f24565b6113e7565b610f24565b9050919050565b6000819050919050565b61169983611664565b6116ad6116a582611686565b848454611612565b825550505050565b600090565b6116c26116b5565b6116cd818484611690565b505050565b5b818110156116f1576116e66000826116ba565b6001810190506116d3565b5050565b601f82111561173657611707816115e0565b611710846115f5565b8101602085101561171f578190505b61173361172b856115f5565b8301826116d2565b50505b505050565b600082821c905092915050565b60006117596000198460080261173b565b1980831691505092915050565b60006117728383611748565b9150826002028217905092915050565b61178b82610fd7565b67ffffffffffffffff8111156117a4576117a3611111565b5b6117ae82546114cc565b6117b98282856116f5565b600060209050601f8311600181146117ec57600084156117da578287015190505b6117e48582611766565b86555061184c565b601f1984166117fa866115e0565b60005b82811015611822578489015182556001820191506020850194506020810190506117fd565b8683101561183f578489015161183b601f891682611748565b8355505b6001600288020188555050505b505050505050565b60006040820190506118696000830185610fc8565b818103602083015261187b818461102e565b90509392505050565b7f50726f706f73616c20646f6573206e6f74206578697374000000000000000000600082015250565b60006118ba601783610fe2565b91506118c582611884565b602082019050919050565b600060208201905081810360008301526118e9816118ad565b9050919050565b7f416c726561647920766f74656400000000000000000000000000000000000000600082015250565b6000611926600d83610fe2565b9150611931826118f0565b602082019050919050565b6000602082019050818103600083015261195581611919565b9050919050565b60008151905061196b81610f2e565b92915050565b60006020828403121561198757611986610f1a565b5b60006119958482850161195c565b91505092915050565b7f4e6f7420656e6f75676820746f6b656e7320746f20766f746500000000000000600082015250565b60006119d4601983610fe2565b91506119df8261199e565b602082019050919050565b60006020820190508181036000830152611a03816119c7565b9050919050565b6000606082019050611a1f6000830186610fb9565b611a2c6020830185610fb9565b611a396040830184610fc8565b949350505050565b600081519050611a50816112ab565b92915050565b600060208284031215611a6c57611a6b610f1a565b5b6000611a7a84828501611a41565b91505092915050565b7f546f6b656e207472616e73666572206661696c65640000000000000000000000600082015250565b6000611ab9601583610fe2565b9150611ac482611a83565b602082019050919050565b60006020820190508181036000830152611ae881611aac565b9050919050565b6000611afa82610f24565b9150611b0583610f24565b9250828201905080821115611b1d57611b1c611569565b5b92915050565b6000608082019050611b386000830187610fc8565b611b456020830186610fb9565b611b526040830185611073565b611b5f6060830184610fc8565b95945050505050565b7f4e6f7420656e6f75676820766f74657320746f2070726f636573730000000000600082015250565b6000611b9e601b83610fe2565b9150611ba982611b68565b602082019050919050565b60006020820190508181036000830152611bcd81611b91565b9050919050565b6000606082019050611be96000830186611073565b611bf66020830185610fb9565b611c036040830184610fc8565b949350505050565b7f4469646e742073656e6420656e6f7567682066656520746f206a6f696e20444160008201527f4f00000000000000000000000000000000000000000000000000000000000000602082015250565b6000611c67602183610fe2565b9150611c7282611c0b565b604082019050919050565b60006020820190508181036000830152611c9681611c5a565b9050919050565b7f616c726561647920612044414f206d656d626572000000000000000000000000600082015250565b6000611cd3601483610fe2565b9150611cde82611c9d565b602082019050919050565b60006020820190508181036000830152611d0281611cc6565b9050919050565b7f5265656e7472616e637947756172643a207265656e7472616e742063616c6c00600082015250565b6000611d3f601f83610fe2565b9150611d4a82611d09565b602082019050919050565b60006020820190508181036000830152611d6e81611d32565b905091905056fea2646970667358221220ad4fe58373375bde503292b72ad6c59e17f0b302cf41cc7853ec0b50ff8faa2764736f6c634300081c0033",
  "devdoc": {
    "kind": "dev",
    "methods": {},
    "version": 1
  },
  "userdoc": {
    "kind": "user",
    "methods": {},
    "version": 1
  },
  "storageLayout": {
    "storage": [
      {
        "astId": 123,
        "contract": "contracts/DAO.sol:InsuranceDAO",
        "label": "_status",
        "offset": 0,
        "slot": "0",
        "type": "t_uint256"
      },
      {
        "astId": 901,
        "contract": "contracts/DAO.sol:InsuranceDAO",
        "label": "owner",
        "offset": 0,
        "slot": "1",
        "type": "t_address"
      },
      {
        "astId": 903,
        "contract": "contracts/DAO.sol:InsuranceDAO",
        "label": "proposalCount",
        "offset": 0,
        "slot": "2",
        "type": "t_uint256"
      },
      {
        "astId": 905,
        "contract": "contracts/DAO.sol:InsuranceDAO",
        "label": "FEE",
        "offset": 0,
        "slot": "3",
        "type": "t_uint256"
      },
      {
        "astId": 925,
        "contract": "contracts/DAO.sol:InsuranceDAO",
        "label": "DAO_Members",
        "offset": 0,
        "slot": "4",
        "type": "t_array(t_address)dyn_storage"
      },
      {
        "astId": 929,
        "contract": "contracts/DAO.sol:InsuranceDAO",
        "label": "isDAOMember",
        "offset": 0,
        "slot": "5",
        "type": "t_mapping(t_address,t_bool)"
      },
      {
        "astId": 934,
        "contract": "contracts/DAO.sol:InsuranceDAO",
        "label": "proposals",
        "offset": 0,
        "slot": "6",
        "type": "t_mapping(t_uint256,t_struct(Proposal)922_storage)"
      },
      {
        "astId": 940,
        "contract": "contracts/DAO.sol:InsuranceDAO",
        "label": "hasVoted",
        "offset": 0,
        "slot": "7",
        "type": "t_mapping(t_address,t_mapping(t_uint256,t_bool))"
      },
      {
        "astId": 981,
        "contract": "contracts/DAO.sol:InsuranceDAO",
        "label": "master",
        "offset": 0,
        "slot": "8",
        "type": "t_contract(masterContract)2231"
      },
      {
        "astId": 984,
        "contract": "contracts/DAO.sol:InsuranceDAO",
        "label": "token",
        "offset": 0,
        "slot": "9",
        "type": "t_contract(AgroCoin)1315"
      }
    ],
    "types": {
      "t_address": {
        "encoding": "inplace",
        "label": "address",
        "numberOfBytes": "20"
      },
      "t_array(t_address)dyn_storage": {
        "base": "t_address",
        "encoding": "dynamic_array",
        "label": "address[]",
        "numberOfBytes": "32"
      },
      "t_bool": {
        "encoding": "inplace",
        "label": "bool",
        "numberOfBytes": "1"
      },
      "t_contract(AgroCoin)1315": {
        "encoding": "inplace",
        "label": "contract AgroCoin",
        "numberOfBytes": "20"
      },
      "t_contract(masterContract)2231": {
        "encoding": "inplace",
        "label": "contract masterContract",
        "numberOfBytes": "20"
      },
      "t_mapping(t_address,t_bool)": {
        "encoding": "mapping",
        "key": "t_address",
        "label": "mapping(address => bool)",
        "numberOfBytes": "32",
        "value": "t_bool"
      },
      "t_mapping(t_address,t_mapping(t_uint256,t_bool))": {
        "encoding": "mapping",
        "key": "t_address",
        "label": "mapping(address => mapping(uint256 => bool))",
        "numberOfBytes": "32",
        "value": "t_mapping(t_uint256,t_bool)"
      },
      "t_mapping(t_uint256,t_bool)": {
        "encoding": "mapping",
        "key": "t_uint256",
        "label": "mapping(uint256 => bool)",
        "numberOfBytes": "32",
        "value": "t_bool"
      },
      "t_mapping(t_uint256,t_struct(Proposal)922_storage)": {
        "encoding": "mapping",
        "key": "t_uint256",
        "label": "mapping(uint256 => struct InsuranceDAO.Proposal)",
        "numberOfBytes": "32",
        "value": "t_struct(Proposal)922_storage"
      },
      "t_string_storage": {
        "encoding": "bytes",
        "label": "string",
        "numberOfBytes": "32"
      },
      "t_struct(Proposal)922_storage": {
        "encoding": "inplace",
        "label": "struct InsuranceDAO.Proposal",
        "members": [
          {
            "astId": 907,
            "contract": "contracts/DAO.sol:InsuranceDAO",
            "label": "proposer",
            "offset": 0,
            "slot": "0",
            "type": "t_address"
          },
          {
            "astId": 909,
            "contract": "contracts/DAO.sol:InsuranceDAO",
            "label": "id",
            "offset": 0,
            "slot": "1",
            "type": "t_uint256"
          },
          {
            "astId": 911,
            "contract": "contracts/DAO.sol:InsuranceDAO",
            "label": "description",
            "offset": 0,
            "slot": "2",
            "type": "t_string_storage"
          },
          {
            "astId": 913,
            "contract": "contracts/DAO.sol:InsuranceDAO",
            "label": "votesFor",
            "offset": 0,
            "slot": "3",
            "type": "t_uint256"
          },
          {
            "astId": 915,
            "contract": "contracts/DAO.sol:InsuranceDAO",
            "label": "votesAgainst",
            "offset": 0,
            "slot": "4",
            "type": "t_uint256"
          },
          {
            "astId": 917,
            "contract": "contracts/DAO.sol:InsuranceDAO",
            "label": "insuranceType",
            "offset": 0,
            "slot": "5",
            "type": "t_uint256"
          },
          {
            "astId": 919,
            "contract": "contracts/DAO.sol:InsuranceDAO",
            "label": "executed",
            "offset": 0,
            "slot": "6",
            "type": "t_bool"
          },
          {
            "astId": 921,
            "contract": "contracts/DAO.sol:InsuranceDAO",
            "label": "amountToBeSetteled",
            "offset": 0,
            "slot": "7",
            "type": "t_uint256"
          }
        ],
        "numberOfBytes": "256"
      },
      "t_uint256": {
        "encoding": "inplace",
        "label": "uint256",
        "numberOfBytes": "32"
      }
    }
  }
}