{
  "address": "0x9987b69d6f7F623c5a5B1A85D59ca0B54Ca46b60",
  "abi": [
    {
      "inputs": [
        {
          "internalType": "uint256",
          "name": "_fee",
          "type": "uint256"
        },
        {
          "internalType": "address",
          "name": "_a",
          "type": "address"
        }
      ],
      "stateMutability": "nonpayable",
      "type": "constructor"
    },
    {
      "anonymous": false,
      "inputs": [
        {
          "indexed": true,
          "internalType": "address",
          "name": "owner",
          "type": "address"
        },
        {
          "indexed": true,
          "internalType": "address",
          "name": "approved",
          "type": "address"
        },
        {
          "indexed": true,
          "internalType": "uint256",
          "name": "tokenId",
          "type": "uint256"
        }
      ],
      "name": "Approval",
      "type": "event"
    },
    {
      "anonymous": false,
      "inputs": [
        {
          "indexed": true,
          "internalType": "address",
          "name": "owner",
          "type": "address"
        },
        {
          "indexed": true,
          "internalType": "address",
          "name": "operator",
          "type": "address"
        },
        {
          "indexed": false,
          "internalType": "bool",
          "name": "approved",
          "type": "bool"
        }
      ],
      "name": "ApprovalForAll",
      "type": "event"
    },
    {
      "anonymous": false,
      "inputs": [
        {
          "indexed": false,
          "internalType": "uint256",
          "name": "_fromTokenId",
          "type": "uint256"
        },
        {
          "indexed": false,
          "internalType": "uint256",
          "name": "_toTokenId",
          "type": "uint256"
        }
      ],
      "name": "BatchMetadataUpdate",
      "type": "event"
    },
    {
      "anonymous": false,
      "inputs": [
        {
          "indexed": true,
          "internalType": "address",
          "name": "owner",
          "type": "address"
        },
        {
          "indexed": true,
          "internalType": "uint256",
          "name": "tokenId",
          "type": "uint256"
        },
        {
          "indexed": false,
          "internalType": "string",
          "name": "imageURI",
          "type": "string"
        }
      ],
      "name": "LandNFTMinted",
      "type": "event"
    },
    {
      "anonymous": false,
      "inputs": [
        {
          "indexed": false,
          "internalType": "uint256",
          "name": "_tokenId",
          "type": "uint256"
        }
      ],
      "name": "MetadataUpdate",
      "type": "event"
    },
    {
      "anonymous": false,
      "inputs": [
        {
          "indexed": true,
          "internalType": "address",
          "name": "previousOwner",
          "type": "address"
        },
        {
          "indexed": true,
          "internalType": "address",
          "name": "newOwner",
          "type": "address"
        }
      ],
      "name": "OwnershipTransferred",
      "type": "event"
    },
    {
      "anonymous": false,
      "inputs": [
        {
          "indexed": true,
          "internalType": "address",
          "name": "from",
          "type": "address"
        },
        {
          "indexed": true,
          "internalType": "address",
          "name": "to",
          "type": "address"
        },
        {
          "indexed": true,
          "internalType": "uint256",
          "name": "tokenId",
          "type": "uint256"
        }
      ],
      "name": "Transfer",
      "type": "event"
    },
    {
      "inputs": [
        {
          "internalType": "address",
          "name": "",
          "type": "address"
        }
      ],
      "name": "NFTData",
      "outputs": [
        {
          "internalType": "uint256",
          "name": "",
          "type": "uint256"
        }
      ],
      "stateMutability": "view",
      "type": "function"
    },
    {
      "inputs": [
        {
          "internalType": "address",
          "name": "to",
          "type": "address"
        },
        {
          "internalType": "uint256",
          "name": "tokenId",
          "type": "uint256"
        }
      ],
      "name": "approve",
      "outputs": [],
      "stateMutability": "nonpayable",
      "type": "function"
    },
    {
      "inputs": [
        {
          "internalType": "address",
          "name": "owner",
          "type": "address"
        }
      ],
      "name": "balanceOf",
      "outputs": [
        {
          "internalType": "uint256",
          "name": "",
          "type": "uint256"
        }
      ],
      "stateMutability": "view",
      "type": "function"
    },
    {
      "inputs": [],
      "name": "feeForNFT",
      "outputs": [
        {
          "internalType": "uint256",
          "name": "",
          "type": "uint256"
        }
      ],
      "stateMutability": "view",
      "type": "function"
    },
    {
      "inputs": [],
      "name": "getAllNfts",
      "outputs": [
        {
          "components": [
            {
              "internalType": "uint256",
              "name": "tokenId",
              "type": "uint256"
            },
            {
              "internalType": "address",
              "name": "owner",
              "type": "address"
            },
            {
              "internalType": "uint256",
              "name": "width",
              "type": "uint256"
            },
            {
              "internalType": "uint256",
              "name": "length",
              "type": "uint256"
            },
            {
              "internalType": "string",
              "name": "latitude",
              "type": "string"
            },
            {
              "internalType": "string",
              "name": "longitude",
              "type": "string"
            },
            {
              "internalType": "string",
              "name": "imageURI",
              "type": "string"
            }
          ],
          "internalType": "struct LandNFT.Land[]",
          "name": "",
          "type": "tuple[]"
        }
      ],
      "stateMutability": "view",
      "type": "function"
    },
    {
      "inputs": [
        {
          "internalType": "uint256",
          "name": "tokenId",
          "type": "uint256"
        }
      ],
      "name": "getApproved",
      "outputs": [
        {
          "internalType": "address",
          "name": "",
          "type": "address"
        }
      ],
      "stateMutability": "view",
      "type": "function"
    },
    {
      "inputs": [
        {
          "internalType": "uint256",
          "name": "tokenId",
          "type": "uint256"
        }
      ],
      "name": "getLandDetails",
      "outputs": [
        {
          "components": [
            {
              "internalType": "uint256",
              "name": "tokenId",
              "type": "uint256"
            },
            {
              "internalType": "address",
              "name": "owner",
              "type": "address"
            },
            {
              "internalType": "uint256",
              "name": "width",
              "type": "uint256"
            },
            {
              "internalType": "uint256",
              "name": "length",
              "type": "uint256"
            },
            {
              "internalType": "string",
              "name": "latitude",
              "type": "string"
            },
            {
              "internalType": "string",
              "name": "longitude",
              "type": "string"
            },
            {
              "internalType": "string",
              "name": "imageURI",
              "type": "string"
            }
          ],
          "internalType": "struct LandNFT.Land",
          "name": "",
          "type": "tuple"
        }
      ],
      "stateMutability": "view",
      "type": "function"
    },
    {
      "inputs": [
        {
          "internalType": "address",
          "name": "owner",
          "type": "address"
        },
        {
          "internalType": "address",
          "name": "operator",
          "type": "address"
        }
      ],
      "name": "isApprovedForAll",
      "outputs": [
        {
          "internalType": "bool",
          "name": "",
          "type": "bool"
        }
      ],
      "stateMutability": "view",
      "type": "function"
    },
    {
      "inputs": [
        {
          "internalType": "uint256",
          "name": "",
          "type": "uint256"
        }
      ],
      "name": "lands",
      "outputs": [
        {
          "internalType": "uint256",
          "name": "tokenId",
          "type": "uint256"
        },
        {
          "internalType": "address",
          "name": "owner",
          "type": "address"
        },
        {
          "internalType": "uint256",
          "name": "width",
          "type": "uint256"
        },
        {
          "internalType": "uint256",
          "name": "length",
          "type": "uint256"
        },
        {
          "internalType": "string",
          "name": "latitude",
          "type": "string"
        },
        {
          "internalType": "string",
          "name": "longitude",
          "type": "string"
        },
        {
          "internalType": "string",
          "name": "imageURI",
          "type": "string"
        }
      ],
      "stateMutability": "view",
      "type": "function"
    },
    {
      "inputs": [],
      "name": "master",
      "outputs": [
        {
          "internalType": "contract masterContract",
          "name": "",
          "type": "address"
        }
      ],
      "stateMutability": "view",
      "type": "function"
    },
    {
      "inputs": [
        {
          "internalType": "uint256",
          "name": "width",
          "type": "uint256"
        },
        {
          "internalType": "uint256",
          "name": "length",
          "type": "uint256"
        },
        {
          "internalType": "string",
          "name": "latitude",
          "type": "string"
        },
        {
          "internalType": "string",
          "name": "longitude",
          "type": "string"
        },
        {
          "internalType": "string",
          "name": "imageURI",
          "type": "string"
        }
      ],
      "name": "mintLandNFT",
      "outputs": [],
      "stateMutability": "payable",
      "type": "function"
    },
    {
      "inputs": [],
      "name": "name",
      "outputs": [
        {
          "internalType": "string",
          "name": "",
          "type": "string"
        }
      ],
      "stateMutability": "view",
      "type": "function"
    },
    {
      "inputs": [],
      "name": "owner",
      "outputs": [
        {
          "internalType": "address",
          "name": "",
          "type": "address"
        }
      ],
      "stateMutability": "view",
      "type": "function"
    },
    {
      "inputs": [
        {
          "internalType": "uint256",
          "name": "tokenId",
          "type": "uint256"
        }
      ],
      "name": "ownerOf",
      "outputs": [
        {
          "internalType": "address",
          "name": "",
          "type": "address"
        }
      ],
      "stateMutability": "view",
      "type": "function"
    },
    {
      "inputs": [],
      "name": "renounceOwnership",
      "outputs": [],
      "stateMutability": "nonpayable",
      "type": "function"
    },
    {
      "inputs": [
        {
          "internalType": "address",
          "name": "from",
          "type": "address"
        },
        {
          "internalType": "address",
          "name": "to",
          "type": "address"
        },
        {
          "internalType": "uint256",
          "name": "tokenId",
          "type": "uint256"
        }
      ],
      "name": "safeTransferFrom",
      "outputs": [],
      "stateMutability": "nonpayable",
      "type": "function"
    },
    {
      "inputs": [
        {
          "internalType": "address",
          "name": "from",
          "type": "address"
        },
        {
          "internalType": "address",
          "name": "to",
          "type": "address"
        },
        {
          "internalType": "uint256",
          "name": "tokenId",
          "type": "uint256"
        },
        {
          "internalType": "bytes",
          "name": "data",
          "type": "bytes"
        }
      ],
      "name": "safeTransferFrom",
      "outputs": [],
      "stateMutability": "nonpayable",
      "type": "function"
    },
    {
      "inputs": [
        {
          "internalType": "address",
          "name": "operator",
          "type": "address"
        },
        {
          "internalType": "bool",
          "name": "approved",
          "type": "bool"
        }
      ],
      "name": "setApprovalForAll",
      "outputs": [],
      "stateMutability": "nonpayable",
      "type": "function"
    },
    {
      "inputs": [
        {
          "internalType": "bytes4",
          "name": "interfaceId",
          "type": "bytes4"
        }
      ],
      "name": "supportsInterface",
      "outputs": [
        {
          "internalType": "bool",
          "name": "",
          "type": "bool"
        }
      ],
      "stateMutability": "view",
      "type": "function"
    },
    {
      "inputs": [],
      "name": "symbol",
      "outputs": [
        {
          "internalType": "string",
          "name": "",
          "type": "string"
        }
      ],
      "stateMutability": "view",
      "type": "function"
    },
    {
      "inputs": [
        {
          "internalType": "uint256",
          "name": "tokenId",
          "type": "uint256"
        }
      ],
      "name": "tokenURI",
      "outputs": [
        {
          "internalType": "string",
          "name": "",
          "type": "string"
        }
      ],
      "stateMutability": "view",
      "type": "function"
    },
    {
      "inputs": [
        {
          "internalType": "address",
          "name": "from",
          "type": "address"
        },
        {
          "internalType": "address",
          "name": "to",
          "type": "address"
        },
        {
          "internalType": "uint256",
          "name": "tokenId",
          "type": "uint256"
        }
      ],
      "name": "transferFrom",
      "outputs": [],
      "stateMutability": "nonpayable",
      "type": "function"
    },
    {
      "inputs": [
        {
          "internalType": "address",
          "name": "newOwner",
          "type": "address"
        }
      ],
      "name": "transferOwnership",
      "outputs": [],
      "stateMutability": "nonpayable",
      "type": "function"
    }
  ],
  "transactionHash": "0xfb05dd54b1c3498fafe1c46c2f2432934e484de00bd35113a235b6e07482eb42",
  "args": [
    "200000000000000000",
    "0x1c62B148b3fF74655503568f7321420a12c85772"
  ],
  "numDeployments": 2,
  "solcInputHash": "887bab5739e2e5aaa2201516dbc38fbc",
  "bytecode": "0x608060405234801561001057600080fd5b5060405161471838038061471883398181016040528101906100329190610292565b6040518060400160405280600781526020017f4c616e644e4654000000000000000000000000000000000000000000000000008152506040518060400160405280600481526020017f4c414e440000000000000000000000000000000000000000000000000000000081525081600090816100ad9190610518565b5080600190816100bd9190610518565b5050506100dc6100d161012b60201b60201c565b61013360201b60201c565b80600a60006101000a81548173ffffffffffffffffffffffffffffffffffffffff021916908373ffffffffffffffffffffffffffffffffffffffff1602179055508160098190555050506105ea565b600033905090565b6000600760009054906101000a900473ffffffffffffffffffffffffffffffffffffffff16905081600760006101000a81548173ffffffffffffffffffffffffffffffffffffffff021916908373ffffffffffffffffffffffffffffffffffffffff1602179055508173ffffffffffffffffffffffffffffffffffffffff168173ffffffffffffffffffffffffffffffffffffffff167f8be0079c531659141344cd1fd0a4f28419497f9722a3daafe3b4186f6b6457e060405160405180910390a35050565b600080fd5b6000819050919050565b610211816101fe565b811461021c57600080fd5b50565b60008151905061022e81610208565b92915050565b600073ffffffffffffffffffffffffffffffffffffffff82169050919050565b600061025f82610234565b9050919050565b61026f81610254565b811461027a57600080fd5b50565b60008151905061028c81610266565b92915050565b600080604083850312156102a9576102a86101f9565b5b60006102b78582860161021f565b92505060206102c88582860161027d565b9150509250929050565b600081519050919050565b7f4e487b7100000000000000000000000000000000000000000000000000000000600052604160045260246000fd5b7f4e487b7100000000000000000000000000000000000000000000000000000000600052602260045260246000fd5b6000600282049050600182168061035357607f821691505b6020821081036103665761036561030c565b5b50919050565b60008190508160005260206000209050919050565b60006020601f8301049050919050565b600082821b905092915050565b6000600883026103ce7fffffffffffffffffffffffffffffffffffffffffffffffffffffffffffffffff82610391565b6103d88683610391565b95508019841693508086168417925050509392505050565b6000819050919050565b600061041561041061040b846101fe565b6103f0565b6101fe565b9050919050565b6000819050919050565b61042f836103fa565b61044361043b8261041c565b84845461039e565b825550505050565b600090565b61045861044b565b610463818484610426565b505050565b5b818110156104875761047c600082610450565b600181019050610469565b5050565b601f8211156104cc5761049d8161036c565b6104a684610381565b810160208510156104b5578190505b6104c96104c185610381565b830182610468565b50505b505050565b600082821c905092915050565b60006104ef600019846008026104d1565b1980831691505092915050565b600061050883836104de565b9150826002028217905092915050565b610521826102d2565b67ffffffffffffffff81111561053a576105396102dd565b5b610544825461033b565b61054f82828561048b565b600060209050601f8311600181146105825760008415610570578287015190505b61057a85826104fc565b8655506105e2565b601f1984166105908661036c565b60005b828110156105b857848901518255600182019150602085019450602081019050610593565b868310156105d557848901516105d1601f8916826104de565b8355505b6001600288020188555050505b505050505050565b61411f806105f96000396000f3fe6080604052600436106101405760003560e01c80638da5cb5b116100b6578063c87b56dd1161006f578063c87b56dd1461044d578063e261f1e51461048a578063e985e9c5146104cd578063ee97f7f31461050a578063f2fde38b14610535578063fe0cb7dc1461055e57610140565b80638da5cb5b1461035e57806395d89b4114610389578063a22cb465146103b4578063b5a968cf146103dd578063b88d4fde14610408578063bcfbbcab1461043157610140565b806323b872dd1161010857806323b872dd1461025057806342842e0e146102795780636352211e146102a257806370a08231146102df578063715018a61461031c578063732e8d731461033357610140565b806301ffc9a71461014557806306fdde0314610182578063081812fc146101ad57806308b57444146101ea578063095ea7b314610227575b600080fd5b34801561015157600080fd5b5061016c60048036038101906101679190612974565b61059b565b60405161017991906129bc565b60405180910390f35b34801561018e57600080fd5b506101976105fc565b6040516101a49190612a67565b60405180910390f35b3480156101b957600080fd5b506101d460048036038101906101cf9190612abf565b61068e565b6040516101e19190612b2d565b60405180910390f35b3480156101f657600080fd5b50610211600480360381019061020c9190612b74565b6106d4565b60405161021e9190612bb0565b60405180910390f35b34801561023357600080fd5b5061024e60048036038101906102499190612bcb565b6106ec565b005b34801561025c57600080fd5b5061027760048036038101906102729190612c0b565b610803565b005b34801561028557600080fd5b506102a0600480360381019061029b9190612c0b565b610863565b005b3480156102ae57600080fd5b506102c960048036038101906102c49190612abf565b610883565b6040516102d69190612b2d565b60405180910390f35b3480156102eb57600080fd5b5061030660048036038101906103019190612b74565b610909565b6040516103139190612bb0565b60405180910390f35b34801561032857600080fd5b506103316109c0565b005b34801561033f57600080fd5b506103486109d4565b6040516103559190612e32565b60405180910390f35b34801561036a57600080fd5b50610373610cdc565b6040516103809190612b2d565b60405180910390f35b34801561039557600080fd5b5061039e610d06565b6040516103ab9190612a67565b60405180910390f35b3480156103c057600080fd5b506103db60048036038101906103d69190612e80565b610d98565b005b3480156103e957600080fd5b506103f2610dae565b6040516103ff9190612bb0565b60405180910390f35b34801561041457600080fd5b5061042f600480360381019061042a9190612ff5565b610db4565b005b61044b60048036038101906104469190613119565b610e16565b005b34801561045957600080fd5b50610474600480360381019061046f9190612abf565b611122565b6040516104819190612a67565b60405180910390f35b34801561049657600080fd5b506104b160048036038101906104ac9190612abf565b611234565b6040516104c497969594939291906131e8565b60405180910390f35b3480156104d957600080fd5b506104f460048036038101906104ef919061326c565b61142e565b60405161050191906129bc565b60405180910390f35b34801561051657600080fd5b5061051f6114c2565b60405161052c919061330b565b60405180910390f35b34801561054157600080fd5b5061055c60048036038101906105579190612b74565b6114e8565b005b34801561056a57600080fd5b5061058560048036038101906105809190612abf565b61156b565b60405161059291906133d0565b60405180910390f35b6000634906490660e01b7bffffffffffffffffffffffffffffffffffffffffffffffffffffffff1916827bffffffffffffffffffffffffffffffffffffffffffffffffffffffff191614806105f557506105f48261180a565b5b9050919050565b60606000805461060b90613421565b80601f016020809104026020016040519081016040528092919081815260200182805461063790613421565b80156106845780601f1061065957610100808354040283529160200191610684565b820191906000526020600020905b81548152906001019060200180831161066757829003601f168201915b5050505050905090565b6000610699826118ec565b6004600083815260200190815260200160002060009054906101000a900473ffffffffffffffffffffffffffffffffffffffff169050919050565b600c6020528060005260406000206000915090505481565b60006106f782610883565b90508073ffffffffffffffffffffffffffffffffffffffff168373ffffffffffffffffffffffffffffffffffffffff1603610767576040517f08c379a000000000000000000000000000000000000000000000000000000000815260040161075e906134c4565b60405180910390fd5b8073ffffffffffffffffffffffffffffffffffffffff16610786611937565b73ffffffffffffffffffffffffffffffffffffffff1614806107b557506107b4816107af611937565b61142e565b5b6107f4576040517f08c379a00000000000000000000000000000000000000000000000000000000081526004016107eb90613556565b60405180910390fd5b6107fe838361193f565b505050565b61081461080e611937565b826119f8565b610853576040517f08c379a000000000000000000000000000000000000000000000000000000000815260040161084a906135e8565b60405180910390fd5b61085e838383611a8d565b505050565b61087e83838360405180602001604052806000815250610db4565b505050565b60008061088f83611d86565b9050600073ffffffffffffffffffffffffffffffffffffffff168173ffffffffffffffffffffffffffffffffffffffff1603610900576040517f08c379a00000000000000000000000000000000000000000000000000000000081526004016108f790613654565b60405180910390fd5b80915050919050565b60008073ffffffffffffffffffffffffffffffffffffffff168273ffffffffffffffffffffffffffffffffffffffff1603610979576040517f08c379a0000000000000000000000000000000000000000000000000000000008152600401610970906136e6565b60405180910390fd5b600360008373ffffffffffffffffffffffffffffffffffffffff1673ffffffffffffffffffffffffffffffffffffffff168152602001908152602001600020549050919050565b6109c8611dc3565b6109d26000611e41565b565b60606000600d8054905067ffffffffffffffff8111156109f7576109f6612eca565b5b604051908082528060200260200182016040528015610a3057816020015b610a1d6128b5565b815260200190600190039081610a155790505b50905060005b600d80549050811015610cd457600b6000600d8381548110610a5b57610a5a613706565b5b906000526020600020015481526020019081526020016000206040518060e0016040529081600082015481526020016001820160009054906101000a900473ffffffffffffffffffffffffffffffffffffffff1673ffffffffffffffffffffffffffffffffffffffff1673ffffffffffffffffffffffffffffffffffffffff1681526020016002820154815260200160038201548152602001600482018054610b0390613421565b80601f0160208091040260200160405190810160405280929190818152602001828054610b2f90613421565b8015610b7c5780601f10610b5157610100808354040283529160200191610b7c565b820191906000526020600020905b815481529060010190602001808311610b5f57829003601f168201915b50505050508152602001600582018054610b9590613421565b80601f0160208091040260200160405190810160405280929190818152602001828054610bc190613421565b8015610c0e5780601f10610be357610100808354040283529160200191610c0e565b820191906000526020600020905b815481529060010190602001808311610bf157829003601f168201915b50505050508152602001600682018054610c2790613421565b80601f0160208091040260200160405190810160405280929190818152602001828054610c5390613421565b8015610ca05780601f10610c7557610100808354040283529160200191610ca0565b820191906000526020600020905b815481529060010190602001808311610c8357829003601f168201915b505050505081525050828281518110610cbc57610cbb613706565b5b60200260200101819052508080600101915050610a36565b508091505090565b6000600760009054906101000a900473ffffffffffffffffffffffffffffffffffffffff16905090565b606060018054610d1590613421565b80601f0160208091040260200160405190810160405280929190818152602001828054610d4190613421565b8015610d8e5780601f10610d6357610100808354040283529160200191610d8e565b820191906000526020600020905b815481529060010190602001808311610d7157829003601f168201915b5050505050905090565b610daa610da3611937565b8383611f07565b5050565b60095481565b610dc5610dbf611937565b836119f8565b610e04576040517f08c379a0000000000000000000000000000000000000000000000000000000008152600401610dfb906135e8565b60405180910390fd5b610e1084848484612073565b50505050565b600954341015610e5b576040517f08c379a0000000000000000000000000000000000000000000000000000000008152600401610e5290613781565b60405180910390fd5b6000815111610e9f576040517f08c379a0000000000000000000000000000000000000000000000000000000008152600401610e96906137ed565b60405180910390fd5b610ea960086120cf565b6000610eb560086120e5565b9050610ec133826120f3565b610ecb8183612310565b6040518060e001604052808281526020013373ffffffffffffffffffffffffffffffffffffffff16815260200187815260200186815260200185815260200184815260200183815250600b60008381526020019081526020016000206000820151816000015560208201518160010160006101000a81548173ffffffffffffffffffffffffffffffffffffffff021916908373ffffffffffffffffffffffffffffffffffffffff16021790555060408201518160020155606082015181600301556080820151816004019081610fa191906139af565b5060a0820151816005019081610fb791906139af565b5060c0820151816006019081610fcd91906139af565b50905050600a60009054906101000a900473ffffffffffffffffffffffffffffffffffffffff1673ffffffffffffffffffffffffffffffffffffffff16636db631d9336040518263ffffffff1660e01b815260040161102c9190612b2d565b600060405180830381600087803b15801561104657600080fd5b505af115801561105a573d6000803e3d6000fd5b5050505080600c60003373ffffffffffffffffffffffffffffffffffffffff1673ffffffffffffffffffffffffffffffffffffffff16815260200190815260200160002081905550600d819080600181540180825580915050600190039060005260206000200160009091909190915055803373ffffffffffffffffffffffffffffffffffffffff167fa289e7d78322da1018e1598468bd00f091784faf1bd9cc354515c803b5a123fc846040516111129190612a67565b60405180910390a3505050505050565b606061112d826118ec565b600060066000848152602001908152602001600020805461114d90613421565b80601f016020809104026020016040519081016040528092919081815260200182805461117990613421565b80156111c65780601f1061119b576101008083540402835291602001916111c6565b820191906000526020600020905b8154815290600101906020018083116111a957829003601f168201915b5050505050905060006111d76123b4565b905060008151036111ec57819250505061122f565b600082511115611221578082604051602001611209929190613abd565b6040516020818303038152906040529250505061122f565b61122a846123cb565b925050505b919050565b600b6020528060005260406000206000915090508060000154908060010160009054906101000a900473ffffffffffffffffffffffffffffffffffffffff169080600201549080600301549080600401805461128f90613421565b80601f01602080910402602001604051908101604052809291908181526020018280546112bb90613421565b80156113085780601f106112dd57610100808354040283529160200191611308565b820191906000526020600020905b8154815290600101906020018083116112eb57829003601f168201915b50505050509080600501805461131d90613421565b80601f016020809104026020016040519081016040528092919081815260200182805461134990613421565b80156113965780601f1061136b57610100808354040283529160200191611396565b820191906000526020600020905b81548152906001019060200180831161137957829003601f168201915b5050505050908060060180546113ab90613421565b80601f01602080910402602001604051908101604052809291908181526020018280546113d790613421565b80156114245780601f106113f957610100808354040283529160200191611424565b820191906000526020600020905b81548152906001019060200180831161140757829003601f168201915b5050505050905087565b6000600560008473ffffffffffffffffffffffffffffffffffffffff1673ffffffffffffffffffffffffffffffffffffffff16815260200190815260200160002060008373ffffffffffffffffffffffffffffffffffffffff1673ffffffffffffffffffffffffffffffffffffffff16815260200190815260200160002060009054906101000a900460ff16905092915050565b600a60009054906101000a900473ffffffffffffffffffffffffffffffffffffffff1681565b6114f0611dc3565b600073ffffffffffffffffffffffffffffffffffffffff168173ffffffffffffffffffffffffffffffffffffffff160361155f576040517f08c379a000000000000000000000000000000000000000000000000000000000815260040161155690613b53565b60405180910390fd5b61156881611e41565b50565b6115736128b5565b61157c82612433565b6115bb576040517f08c379a00000000000000000000000000000000000000000000000000000000081526004016115b290613bbf565b60405180910390fd5b600b60008381526020019081526020016000206040518060e0016040529081600082015481526020016001820160009054906101000a900473ffffffffffffffffffffffffffffffffffffffff1673ffffffffffffffffffffffffffffffffffffffff1673ffffffffffffffffffffffffffffffffffffffff168152602001600282015481526020016003820154815260200160048201805461165d90613421565b80601f016020809104026020016040519081016040528092919081815260200182805461168990613421565b80156116d65780601f106116ab576101008083540402835291602001916116d6565b820191906000526020600020905b8154815290600101906020018083116116b957829003601f168201915b505050505081526020016005820180546116ef90613421565b80601f016020809104026020016040519081016040528092919081815260200182805461171b90613421565b80156117685780601f1061173d57610100808354040283529160200191611768565b820191906000526020600020905b81548152906001019060200180831161174b57829003601f168201915b5050505050815260200160068201805461178190613421565b80601f01602080910402602001604051908101604052809291908181526020018280546117ad90613421565b80156117fa5780601f106117cf576101008083540402835291602001916117fa565b820191906000526020600020905b8154815290600101906020018083116117dd57829003601f168201915b5050505050815250509050919050565b60007f80ac58cd000000000000000000000000000000000000000000000000000000007bffffffffffffffffffffffffffffffffffffffffffffffffffffffff1916827bffffffffffffffffffffffffffffffffffffffffffffffffffffffff191614806118d557507f5b5e139f000000000000000000000000000000000000000000000000000000007bffffffffffffffffffffffffffffffffffffffffffffffffffffffff1916827bffffffffffffffffffffffffffffffffffffffffffffffffffffffff1916145b806118e557506118e482612474565b5b9050919050565b6118f581612433565b611934576040517f08c379a000000000000000000000000000000000000000000000000000000000815260040161192b90613654565b60405180910390fd5b50565b600033905090565b816004600083815260200190815260200160002060006101000a81548173ffffffffffffffffffffffffffffffffffffffff021916908373ffffffffffffffffffffffffffffffffffffffff160217905550808273ffffffffffffffffffffffffffffffffffffffff166119b283610883565b73ffffffffffffffffffffffffffffffffffffffff167f8c5be1e5ebec7d5bd14f71427d1e84f3dd0314c0f7b2291e5b200ac8c7c3b92560405160405180910390a45050565b600080611a0483610883565b90508073ffffffffffffffffffffffffffffffffffffffff168473ffffffffffffffffffffffffffffffffffffffff161480611a465750611a45818561142e565b5b80611a8457508373ffffffffffffffffffffffffffffffffffffffff16611a6c8461068e565b73ffffffffffffffffffffffffffffffffffffffff16145b91505092915050565b8273ffffffffffffffffffffffffffffffffffffffff16611aad82610883565b73ffffffffffffffffffffffffffffffffffffffff1614611b03576040517f08c379a0000000000000000000000000000000000000000000000000000000008152600401611afa90613c51565b60405180910390fd5b600073ffffffffffffffffffffffffffffffffffffffff168273ffffffffffffffffffffffffffffffffffffffff1603611b72576040517f08c379a0000000000000000000000000000000000000000000000000000000008152600401611b6990613ce3565b60405180910390fd5b611b7f83838360016124de565b8273ffffffffffffffffffffffffffffffffffffffff16611b9f82610883565b73ffffffffffffffffffffffffffffffffffffffff1614611bf5576040517f08c379a0000000000000000000000000000000000000000000000000000000008152600401611bec90613c51565b60405180910390fd5b6004600082815260200190815260200160002060006101000a81549073ffffffffffffffffffffffffffffffffffffffff02191690556001600360008573ffffffffffffffffffffffffffffffffffffffff1673ffffffffffffffffffffffffffffffffffffffff168152602001908152602001600020600082825403925050819055506001600360008473ffffffffffffffffffffffffffffffffffffffff1673ffffffffffffffffffffffffffffffffffffffff16815260200190815260200160002060008282540192505081905550816002600083815260200190815260200160002060006101000a81548173ffffffffffffffffffffffffffffffffffffffff021916908373ffffffffffffffffffffffffffffffffffffffff160217905550808273ffffffffffffffffffffffffffffffffffffffff168473ffffffffffffffffffffffffffffffffffffffff167fddf252ad1be2c89b69c2b068fc378daa952ba7f163c4a11628f55a4df523b3ef60405160405180910390a4611d8183838360016124e4565b505050565b60006002600083815260200190815260200160002060009054906101000a900473ffffffffffffffffffffffffffffffffffffffff169050919050565b611dcb611937565b73ffffffffffffffffffffffffffffffffffffffff16611de9610cdc565b73ffffffffffffffffffffffffffffffffffffffff1614611e3f576040517f08c379a0000000000000000000000000000000000000000000000000000000008152600401611e3690613d4f565b60405180910390fd5b565b6000600760009054906101000a900473ffffffffffffffffffffffffffffffffffffffff16905081600760006101000a81548173ffffffffffffffffffffffffffffffffffffffff021916908373ffffffffffffffffffffffffffffffffffffffff1602179055508173ffffffffffffffffffffffffffffffffffffffff168173ffffffffffffffffffffffffffffffffffffffff167f8be0079c531659141344cd1fd0a4f28419497f9722a3daafe3b4186f6b6457e060405160405180910390a35050565b8173ffffffffffffffffffffffffffffffffffffffff168373ffffffffffffffffffffffffffffffffffffffff1603611f75576040517f08c379a0000000000000000000000000000000000000000000000000000000008152600401611f6c90613dbb565b60405180910390fd5b80600560008573ffffffffffffffffffffffffffffffffffffffff1673ffffffffffffffffffffffffffffffffffffffff16815260200190815260200160002060008473ffffffffffffffffffffffffffffffffffffffff1673ffffffffffffffffffffffffffffffffffffffff16815260200190815260200160002060006101000a81548160ff0219169083151502179055508173ffffffffffffffffffffffffffffffffffffffff168373ffffffffffffffffffffffffffffffffffffffff167f17307eab39ab6107e8899845ad3d59bd9653f200f220920489ca2b5937696c318360405161206691906129bc565b60405180910390a3505050565b61207e848484611a8d565b61208a848484846124ea565b6120c9576040517f08c379a00000000000000000000000000000000000000000000000000000000081526004016120c090613e4d565b60405180910390fd5b50505050565b6001816000016000828254019250508190555050565b600081600001549050919050565b600073ffffffffffffffffffffffffffffffffffffffff168273ffffffffffffffffffffffffffffffffffffffff1603612162576040517f08c379a000000000000000000000000000000000000000000000000000000000815260040161215990613eb9565b60405180910390fd5b61216b81612433565b156121ab576040517f08c379a00000000000000000000000000000000000000000000000000000000081526004016121a290613f25565b60405180910390fd5b6121b96000838360016124de565b6121c281612433565b15612202576040517f08c379a00000000000000000000000000000000000000000000000000000000081526004016121f990613f25565b60405180910390fd5b6001600360008473ffffffffffffffffffffffffffffffffffffffff1673ffffffffffffffffffffffffffffffffffffffff16815260200190815260200160002060008282540192505081905550816002600083815260200190815260200160002060006101000a81548173ffffffffffffffffffffffffffffffffffffffff021916908373ffffffffffffffffffffffffffffffffffffffff160217905550808273ffffffffffffffffffffffffffffffffffffffff16600073ffffffffffffffffffffffffffffffffffffffff167fddf252ad1be2c89b69c2b068fc378daa952ba7f163c4a11628f55a4df523b3ef60405160405180910390a461230c6000838360016124e4565b5050565b61231982612433565b612358576040517f08c379a000000000000000000000000000000000000000000000000000000000815260040161234f90613fb7565b60405180910390fd5b8060066000848152602001908152602001600020908161237891906139af565b507ff8e1a15aba9398e019f0b49df1a4fde98ee17ae345cb5f6b5e2c27f5033e8ce7826040516123a89190612bb0565b60405180910390a15050565b606060405180602001604052806000815250905090565b60606123d6826118ec565b60006123e06123b4565b90506000815111612400576040518060200160405280600081525061242b565b8061240a84612671565b60405160200161241b929190613abd565b6040516020818303038152906040525b915050919050565b60008073ffffffffffffffffffffffffffffffffffffffff1661245583611d86565b73ffffffffffffffffffffffffffffffffffffffff1614159050919050565b60007f01ffc9a7000000000000000000000000000000000000000000000000000000007bffffffffffffffffffffffffffffffffffffffffffffffffffffffff1916827bffffffffffffffffffffffffffffffffffffffffffffffffffffffff1916149050919050565b50505050565b50505050565b600061250b8473ffffffffffffffffffffffffffffffffffffffff1661273f565b15612664578373ffffffffffffffffffffffffffffffffffffffff1663150b7a02612534611937565b8786866040518563ffffffff1660e01b8152600401612556949392919061402c565b6020604051808303816000875af192505050801561259257506040513d601f19601f8201168201806040525081019061258f919061408d565b60015b612614573d80600081146125c2576040519150601f19603f3d011682016040523d82523d6000602084013e6125c7565b606091505b50600081510361260c576040517f08c379a000000000000000000000000000000000000000000000000000000000815260040161260390613e4d565b60405180910390fd5b805181602001fd5b63150b7a0260e01b7bffffffffffffffffffffffffffffffffffffffffffffffffffffffff1916817bffffffffffffffffffffffffffffffffffffffffffffffffffffffff191614915050612669565b600190505b949350505050565b60606000600161268084612762565b01905060008167ffffffffffffffff81111561269f5761269e612eca565b5b6040519080825280601f01601f1916602001820160405280156126d15781602001600182028036833780820191505090505b509050600082602001820190505b600115612734578080600190039150507f3031323334353637383961626364656600000000000000000000000000000000600a86061a8153600a8581612728576127276140ba565b5b049450600085036126df575b819350505050919050565b6000808273ffffffffffffffffffffffffffffffffffffffff163b119050919050565b600080600090507a184f03e93ff9f4daa797ed6e38ed64bf6a1f01000000000000000083106127c0577a184f03e93ff9f4daa797ed6e38ed64bf6a1f01000000000000000083816127b6576127b56140ba565b5b0492506040810190505b6d04ee2d6d415b85acef810000000083106127fd576d04ee2d6d415b85acef810000000083816127f3576127f26140ba565b5b0492506020810190505b662386f26fc10000831061282c57662386f26fc100008381612822576128216140ba565b5b0492506010810190505b6305f5e1008310612855576305f5e100838161284b5761284a6140ba565b5b0492506008810190505b612710831061287a5761271083816128705761286f6140ba565b5b0492506004810190505b6064831061289d5760648381612893576128926140ba565b5b0492506002810190505b600a83106128ac576001810190505b80915050919050565b6040518060e0016040528060008152602001600073ffffffffffffffffffffffffffffffffffffffff16815260200160008152602001600081526020016060815260200160608152602001606081525090565b6000604051905090565b600080fd5b600080fd5b60007fffffffff0000000000000000000000000000000000000000000000000000000082169050919050565b6129518161291c565b811461295c57600080fd5b50565b60008135905061296e81612948565b92915050565b60006020828403121561298a57612989612912565b5b60006129988482850161295f565b91505092915050565b60008115159050919050565b6129b6816129a1565b82525050565b60006020820190506129d160008301846129ad565b92915050565b600081519050919050565b600082825260208201905092915050565b60005b83811015612a115780820151818401526020810190506129f6565b60008484015250505050565b6000601f19601f8301169050919050565b6000612a39826129d7565b612a4381856129e2565b9350612a538185602086016129f3565b612a5c81612a1d565b840191505092915050565b60006020820190508181036000830152612a818184612a2e565b905092915050565b6000819050919050565b612a9c81612a89565b8114612aa757600080fd5b50565b600081359050612ab981612a93565b92915050565b600060208284031215612ad557612ad4612912565b5b6000612ae384828501612aaa565b91505092915050565b600073ffffffffffffffffffffffffffffffffffffffff82169050919050565b6000612b1782612aec565b9050919050565b612b2781612b0c565b82525050565b6000602082019050612b426000830184612b1e565b92915050565b612b5181612b0c565b8114612b5c57600080fd5b50565b600081359050612b6e81612b48565b92915050565b600060208284031215612b8a57612b89612912565b5b6000612b9884828501612b5f565b91505092915050565b612baa81612a89565b82525050565b6000602082019050612bc56000830184612ba1565b92915050565b60008060408385031215612be257612be1612912565b5b6000612bf085828601612b5f565b9250506020612c0185828601612aaa565b9150509250929050565b600080600060608486031215612c2457612c23612912565b5b6000612c3286828701612b5f565b9350506020612c4386828701612b5f565b9250506040612c5486828701612aaa565b9150509250925092565b600081519050919050565b600082825260208201905092915050565b6000819050602082019050919050565b612c9381612a89565b82525050565b612ca281612b0c565b82525050565b600082825260208201905092915050565b6000612cc4826129d7565b612cce8185612ca8565b9350612cde8185602086016129f3565b612ce781612a1d565b840191505092915050565b600060e083016000830151612d0a6000860182612c8a565b506020830151612d1d6020860182612c99565b506040830151612d306040860182612c8a565b506060830151612d436060860182612c8a565b5060808301518482036080860152612d5b8282612cb9565b91505060a083015184820360a0860152612d758282612cb9565b91505060c083015184820360c0860152612d8f8282612cb9565b9150508091505092915050565b6000612da88383612cf2565b905092915050565b6000602082019050919050565b6000612dc882612c5e565b612dd28185612c69565b935083602082028501612de485612c7a565b8060005b85811015612e205784840389528151612e018582612d9c565b9450612e0c83612db0565b925060208a01995050600181019050612de8565b50829750879550505050505092915050565b60006020820190508181036000830152612e4c8184612dbd565b905092915050565b612e5d816129a1565b8114612e6857600080fd5b50565b600081359050612e7a81612e54565b92915050565b60008060408385031215612e9757612e96612912565b5b6000612ea585828601612b5f565b9250506020612eb685828601612e6b565b9150509250929050565b600080fd5b600080fd5b7f4e487b7100000000000000000000000000000000000000000000000000000000600052604160045260246000fd5b612f0282612a1d565b810181811067ffffffffffffffff82111715612f2157612f20612eca565b5b80604052505050565b6000612f34612908565b9050612f408282612ef9565b919050565b600067ffffffffffffffff821115612f6057612f5f612eca565b5b612f6982612a1d565b9050602081019050919050565b82818337600083830152505050565b6000612f98612f9384612f45565b612f2a565b905082815260208101848484011115612fb457612fb3612ec5565b5b612fbf848285612f76565b509392505050565b600082601f830112612fdc57612fdb612ec0565b5b8135612fec848260208601612f85565b91505092915050565b6000806000806080858703121561300f5761300e612912565b5b600061301d87828801612b5f565b945050602061302e87828801612b5f565b935050604061303f87828801612aaa565b925050606085013567ffffffffffffffff8111156130605761305f612917565b5b61306c87828801612fc7565b91505092959194509250565b600067ffffffffffffffff82111561309357613092612eca565b5b61309c82612a1d565b9050602081019050919050565b60006130bc6130b784613078565b612f2a565b9050828152602081018484840111156130d8576130d7612ec5565b5b6130e3848285612f76565b509392505050565b600082601f830112613100576130ff612ec0565b5b81356131108482602086016130a9565b91505092915050565b600080600080600060a0868803121561313557613134612912565b5b600061314388828901612aaa565b955050602061315488828901612aaa565b945050604086013567ffffffffffffffff81111561317557613174612917565b5b613181888289016130eb565b935050606086013567ffffffffffffffff8111156131a2576131a1612917565b5b6131ae888289016130eb565b925050608086013567ffffffffffffffff8111156131cf576131ce612917565b5b6131db888289016130eb565b9150509295509295909350565b600060e0820190506131fd600083018a612ba1565b61320a6020830189612b1e565b6132176040830188612ba1565b6132246060830187612ba1565b81810360808301526132368186612a2e565b905081810360a083015261324a8185612a2e565b905081810360c083015261325e8184612a2e565b905098975050505050505050565b6000806040838503121561328357613282612912565b5b600061329185828601612b5f565b92505060206132a285828601612b5f565b9150509250929050565b6000819050919050565b60006132d16132cc6132c784612aec565b6132ac565b612aec565b9050919050565b60006132e3826132b6565b9050919050565b60006132f5826132d8565b9050919050565b613305816132ea565b82525050565b600060208201905061332060008301846132fc565b92915050565b600060e08301600083015161333e6000860182612c8a565b5060208301516133516020860182612c99565b5060408301516133646040860182612c8a565b5060608301516133776060860182612c8a565b506080830151848203608086015261338f8282612cb9565b91505060a083015184820360a08601526133a98282612cb9565b91505060c083015184820360c08601526133c38282612cb9565b9150508091505092915050565b600060208201905081810360008301526133ea8184613326565b905092915050565b7f4e487b7100000000000000000000000000000000000000000000000000000000600052602260045260246000fd5b6000600282049050600182168061343957607f821691505b60208210810361344c5761344b6133f2565b5b50919050565b7f4552433732313a20617070726f76616c20746f2063757272656e74206f776e6560008201527f7200000000000000000000000000000000000000000000000000000000000000602082015250565b60006134ae6021836129e2565b91506134b982613452565b604082019050919050565b600060208201905081810360008301526134dd816134a1565b9050919050565b7f4552433732313a20617070726f76652063616c6c6572206973206e6f7420746f60008201527f6b656e206f776e6572206f7220617070726f76656420666f7220616c6c000000602082015250565b6000613540603d836129e2565b915061354b826134e4565b604082019050919050565b6000602082019050818103600083015261356f81613533565b9050919050565b7f4552433732313a2063616c6c6572206973206e6f7420746f6b656e206f776e6560008201527f72206f7220617070726f76656400000000000000000000000000000000000000602082015250565b60006135d2602d836129e2565b91506135dd82613576565b604082019050919050565b60006020820190508181036000830152613601816135c5565b9050919050565b7f4552433732313a20696e76616c696420746f6b656e2049440000000000000000600082015250565b600061363e6018836129e2565b915061364982613608565b602082019050919050565b6000602082019050818103600083015261366d81613631565b9050919050565b7f4552433732313a2061646472657373207a65726f206973206e6f74206120766160008201527f6c6964206f776e65720000000000000000000000000000000000000000000000602082015250565b60006136d06029836129e2565b91506136db82613674565b604082019050919050565b600060208201905081810360008301526136ff816136c3565b9050919050565b7f4e487b7100000000000000000000000000000000000000000000000000000000600052603260045260246000fd5b7f4e6f7420656e6f75676820666565000000000000000000000000000000000000600082015250565b600061376b600e836129e2565b915061377682613735565b602082019050919050565b6000602082019050818103600083015261379a8161375e565b9050919050565b7f496d616765205552492069732072657175697265640000000000000000000000600082015250565b60006137d76015836129e2565b91506137e2826137a1565b602082019050919050565b60006020820190508181036000830152613806816137ca565b9050919050565b60008190508160005260206000209050919050565b60006020601f8301049050919050565b600082821b905092915050565b60006008830261386f7fffffffffffffffffffffffffffffffffffffffffffffffffffffffffffffffff82613832565b6138798683613832565b95508019841693508086168417925050509392505050565b60006138ac6138a76138a284612a89565b6132ac565b612a89565b9050919050565b6000819050919050565b6138c683613891565b6138da6138d2826138b3565b84845461383f565b825550505050565b600090565b6138ef6138e2565b6138fa8184846138bd565b505050565b5b8181101561391e576139136000826138e7565b600181019050613900565b5050565b601f821115613963576139348161380d565b61393d84613822565b8101602085101561394c578190505b61396061395885613822565b8301826138ff565b50505b505050565b600082821c905092915050565b600061398660001984600802613968565b1980831691505092915050565b600061399f8383613975565b9150826002028217905092915050565b6139b8826129d7565b67ffffffffffffffff8111156139d1576139d0612eca565b5b6139db8254613421565b6139e6828285613922565b600060209050601f831160018114613a195760008415613a07578287015190505b613a118582613993565b865550613a79565b601f198416613a278661380d565b60005b82811015613a4f57848901518255600182019150602085019450602081019050613a2a565b86831015613a6c5784890151613a68601f891682613975565b8355505b6001600288020188555050505b505050505050565b600081905092915050565b6000613a97826129d7565b613aa18185613a81565b9350613ab18185602086016129f3565b80840191505092915050565b6000613ac98285613a8c565b9150613ad58284613a8c565b91508190509392505050565b7f4f776e61626c653a206e6577206f776e657220697320746865207a65726f206160008201527f6464726573730000000000000000000000000000000000000000000000000000602082015250565b6000613b3d6026836129e2565b9150613b4882613ae1565b604082019050919050565b60006020820190508181036000830152613b6c81613b30565b9050919050565b7f546f6b656e20646f6573206e6f74206578697374000000000000000000000000600082015250565b6000613ba96014836129e2565b9150613bb482613b73565b602082019050919050565b60006020820190508181036000830152613bd881613b9c565b9050919050565b7f4552433732313a207472616e736665722066726f6d20696e636f72726563742060008201527f6f776e6572000000000000000000000000000000000000000000000000000000602082015250565b6000613c3b6025836129e2565b9150613c4682613bdf565b604082019050919050565b60006020820190508181036000830152613c6a81613c2e565b9050919050565b7f4552433732313a207472616e7366657220746f20746865207a65726f2061646460008201527f7265737300000000000000000000000000000000000000000000000000000000602082015250565b6000613ccd6024836129e2565b9150613cd882613c71565b604082019050919050565b60006020820190508181036000830152613cfc81613cc0565b9050919050565b7f4f776e61626c653a2063616c6c6572206973206e6f7420746865206f776e6572600082015250565b6000613d396020836129e2565b9150613d4482613d03565b602082019050919050565b60006020820190508181036000830152613d6881613d2c565b9050919050565b7f4552433732313a20617070726f766520746f2063616c6c657200000000000000600082015250565b6000613da56019836129e2565b9150613db082613d6f565b602082019050919050565b60006020820190508181036000830152613dd481613d98565b9050919050565b7f4552433732313a207472616e7366657220746f206e6f6e20455243373231526560008201527f63656976657220696d706c656d656e7465720000000000000000000000000000602082015250565b6000613e376032836129e2565b9150613e4282613ddb565b604082019050919050565b60006020820190508181036000830152613e6681613e2a565b9050919050565b7f4552433732313a206d696e7420746f20746865207a65726f2061646472657373600082015250565b6000613ea36020836129e2565b9150613eae82613e6d565b602082019050919050565b60006020820190508181036000830152613ed281613e96565b9050919050565b7f4552433732313a20746f6b656e20616c7265616479206d696e74656400000000600082015250565b6000613f0f601c836129e2565b9150613f1a82613ed9565b602082019050919050565b60006020820190508181036000830152613f3e81613f02565b9050919050565b7f45524337323155524953746f726167653a2055524920736574206f66206e6f6e60008201527f6578697374656e7420746f6b656e000000000000000000000000000000000000602082015250565b6000613fa1602e836129e2565b9150613fac82613f45565b604082019050919050565b60006020820190508181036000830152613fd081613f94565b9050919050565b600081519050919050565b600082825260208201905092915050565b6000613ffe82613fd7565b6140088185613fe2565b93506140188185602086016129f3565b61402181612a1d565b840191505092915050565b60006080820190506140416000830187612b1e565b61404e6020830186612b1e565b61405b6040830185612ba1565b818103606083015261406d8184613ff3565b905095945050505050565b60008151905061408781612948565b92915050565b6000602082840312156140a3576140a2612912565b5b60006140b184828501614078565b91505092915050565b7f4e487b7100000000000000000000000000000000000000000000000000000000600052601260045260246000fdfea2646970667358221220eaa7a2d0879662df741a36ad2dea249b5e3788364f4c70f3638a364c9de9e11d64736f6c634300081c0033",
  "devdoc": {
    "events": {
      "Approval(address,address,uint256)": {
        "details": "Emitted when `owner` enables `approved` to manage the `tokenId` token."
      },
      "ApprovalForAll(address,address,bool)": {
        "details": "Emitted when `owner` enables or disables (`approved`) `operator` to manage all of its assets."
      },
      "BatchMetadataUpdate(uint256,uint256)": {
        "details": "This event emits when the metadata of a range of tokens is changed. So that the third-party platforms such as NFT market could timely update the images and related attributes of the NFTs."
      },
      "MetadataUpdate(uint256)": {
        "details": "This event emits when the metadata of a token is changed. So that the third-party platforms such as NFT market could timely update the images and related attributes of the NFT."
      },
      "Transfer(address,address,uint256)": {
        "details": "Emitted when `tokenId` token is transferred from `from` to `to`."
      }
    },
    "kind": "dev",
    "methods": {
      "approve(address,uint256)": {
        "details": "See {IERC721-approve}."
      },
      "balanceOf(address)": {
        "details": "See {IERC721-balanceOf}."
      },
      "getApproved(uint256)": {
        "details": "See {IERC721-getApproved}."
      },
      "isApprovedForAll(address,address)": {
        "details": "See {IERC721-isApprovedForAll}."
      },
      "name()": {
        "details": "See {IERC721Metadata-name}."
      },
      "owner()": {
        "details": "Returns the address of the current owner."
      },
      "ownerOf(uint256)": {
        "details": "See {IERC721-ownerOf}."
      },
      "renounceOwnership()": {
        "details": "Leaves the contract without owner. It will not be possible to call `onlyOwner` functions. Can only be called by the current owner. NOTE: Renouncing ownership will leave the contract without an owner, thereby disabling any functionality that is only available to the owner."
      },
      "safeTransferFrom(address,address,uint256)": {
        "details": "See {IERC721-safeTransferFrom}."
      },
      "safeTransferFrom(address,address,uint256,bytes)": {
        "details": "See {IERC721-safeTransferFrom}."
      },
      "setApprovalForAll(address,bool)": {
        "details": "See {IERC721-setApprovalForAll}."
      },
      "supportsInterface(bytes4)": {
        "details": "See {IERC165-supportsInterface}"
      },
      "symbol()": {
        "details": "See {IERC721Metadata-symbol}."
      },
      "tokenURI(uint256)": {
        "details": "See {IERC721Metadata-tokenURI}."
      },
      "transferFrom(address,address,uint256)": {
        "details": "See {IERC721-transferFrom}."
      },
      "transferOwnership(address)": {
        "details": "Transfers ownership of the contract to a new account (`newOwner`). Can only be called by the current owner."
      }
    },
    "version": 1
  },
  "userdoc": {
    "kind": "user",
    "methods": {},
    "version": 1
  },
  "storageLayout": {
    "storage": [
      {
        "astId": 921,
        "contract": "contracts/nftMaster.sol:LandNFT",
        "label": "_name",
        "offset": 0,
        "slot": "0",
        "type": "t_string_storage"
      },
      {
        "astId": 923,
        "contract": "contracts/nftMaster.sol:LandNFT",
        "label": "_symbol",
        "offset": 0,
        "slot": "1",
        "type": "t_string_storage"
      },
      {
        "astId": 927,
        "contract": "contracts/nftMaster.sol:LandNFT",
        "label": "_owners",
        "offset": 0,
        "slot": "2",
        "type": "t_mapping(t_uint256,t_address)"
      },
      {
        "astId": 931,
        "contract": "contracts/nftMaster.sol:LandNFT",
        "label": "_balances",
        "offset": 0,
        "slot": "3",
        "type": "t_mapping(t_address,t_uint256)"
      },
      {
        "astId": 935,
        "contract": "contracts/nftMaster.sol:LandNFT",
        "label": "_tokenApprovals",
        "offset": 0,
        "slot": "4",
        "type": "t_mapping(t_uint256,t_address)"
      },
      {
        "astId": 941,
        "contract": "contracts/nftMaster.sol:LandNFT",
        "label": "_operatorApprovals",
        "offset": 0,
        "slot": "5",
        "type": "t_mapping(t_address,t_mapping(t_address,t_bool))"
      },
      {
        "astId": 1972,
        "contract": "contracts/nftMaster.sol:LandNFT",
        "label": "_tokenURIs",
        "offset": 0,
        "slot": "6",
        "type": "t_mapping(t_uint256,t_string_storage)"
      },
      {
        "astId": 7,
        "contract": "contracts/nftMaster.sol:LandNFT",
        "label": "_owner",
        "offset": 0,
        "slot": "7",
        "type": "t_address"
      },
      {
        "astId": 5210,
        "contract": "contracts/nftMaster.sol:LandNFT",
        "label": "_tokenIds",
        "offset": 0,
        "slot": "8",
        "type": "t_struct(Counter)2497_storage"
      },
      {
        "astId": 5212,
        "contract": "contracts/nftMaster.sol:LandNFT",
        "label": "feeForNFT",
        "offset": 0,
        "slot": "9",
        "type": "t_uint256"
      },
      {
        "astId": 5230,
        "contract": "contracts/nftMaster.sol:LandNFT",
        "label": "master",
        "offset": 0,
        "slot": "10",
        "type": "t_contract(masterContract)5193"
      },
      {
        "astId": 5235,
        "contract": "contracts/nftMaster.sol:LandNFT",
        "label": "lands",
        "offset": 0,
        "slot": "11",
        "type": "t_mapping(t_uint256,t_struct(Land)5227_storage)"
      },
      {
        "astId": 5239,
        "contract": "contracts/nftMaster.sol:LandNFT",
        "label": "NFTData",
        "offset": 0,
        "slot": "12",
        "type": "t_mapping(t_address,t_uint256)"
      },
      {
        "astId": 5242,
        "contract": "contracts/nftMaster.sol:LandNFT",
        "label": "landIds",
        "offset": 0,
        "slot": "13",
        "type": "t_array(t_uint256)dyn_storage"
      }
    ],
    "types": {
      "t_address": {
        "encoding": "inplace",
        "label": "address",
        "numberOfBytes": "20"
      },
      "t_array(t_uint256)dyn_storage": {
        "base": "t_uint256",
        "encoding": "dynamic_array",
        "label": "uint256[]",
        "numberOfBytes": "32"
      },
      "t_bool": {
        "encoding": "inplace",
        "label": "bool",
        "numberOfBytes": "1"
      },
      "t_contract(masterContract)5193": {
        "encoding": "inplace",
        "label": "contract masterContract",
        "numberOfBytes": "20"
      },
      "t_mapping(t_address,t_bool)": {
        "encoding": "mapping",
        "key": "t_address",
        "label": "mapping(address => bool)",
        "numberOfBytes": "32",
        "value": "t_bool"
      },
      "t_mapping(t_address,t_mapping(t_address,t_bool))": {
        "encoding": "mapping",
        "key": "t_address",
        "label": "mapping(address => mapping(address => bool))",
        "numberOfBytes": "32",
        "value": "t_mapping(t_address,t_bool)"
      },
      "t_mapping(t_address,t_uint256)": {
        "encoding": "mapping",
        "key": "t_address",
        "label": "mapping(address => uint256)",
        "numberOfBytes": "32",
        "value": "t_uint256"
      },
      "t_mapping(t_uint256,t_address)": {
        "encoding": "mapping",
        "key": "t_uint256",
        "label": "mapping(uint256 => address)",
        "numberOfBytes": "32",
        "value": "t_address"
      },
      "t_mapping(t_uint256,t_string_storage)": {
        "encoding": "mapping",
        "key": "t_uint256",
        "label": "mapping(uint256 => string)",
        "numberOfBytes": "32",
        "value": "t_string_storage"
      },
      "t_mapping(t_uint256,t_struct(Land)5227_storage)": {
        "encoding": "mapping",
        "key": "t_uint256",
        "label": "mapping(uint256 => struct LandNFT.Land)",
        "numberOfBytes": "32",
        "value": "t_struct(Land)5227_storage"
      },
      "t_string_storage": {
        "encoding": "bytes",
        "label": "string",
        "numberOfBytes": "32"
      },
      "t_struct(Counter)2497_storage": {
        "encoding": "inplace",
        "label": "struct Counters.Counter",
        "members": [
          {
            "astId": 2496,
            "contract": "contracts/nftMaster.sol:LandNFT",
            "label": "_value",
            "offset": 0,
            "slot": "0",
            "type": "t_uint256"
          }
        ],
        "numberOfBytes": "32"
      },
      "t_struct(Land)5227_storage": {
        "encoding": "inplace",
        "label": "struct LandNFT.Land",
        "members": [
          {
            "astId": 5214,
            "contract": "contracts/nftMaster.sol:LandNFT",
            "label": "tokenId",
            "offset": 0,
            "slot": "0",
            "type": "t_uint256"
          },
          {
            "astId": 5216,
            "contract": "contracts/nftMaster.sol:LandNFT",
            "label": "owner",
            "offset": 0,
            "slot": "1",
            "type": "t_address"
          },
          {
            "astId": 5218,
            "contract": "contracts/nftMaster.sol:LandNFT",
            "label": "width",
            "offset": 0,
            "slot": "2",
            "type": "t_uint256"
          },
          {
            "astId": 5220,
            "contract": "contracts/nftMaster.sol:LandNFT",
            "label": "length",
            "offset": 0,
            "slot": "3",
            "type": "t_uint256"
          },
          {
            "astId": 5222,
            "contract": "contracts/nftMaster.sol:LandNFT",
            "label": "latitude",
            "offset": 0,
            "slot": "4",
            "type": "t_string_storage"
          },
          {
            "astId": 5224,
            "contract": "contracts/nftMaster.sol:LandNFT",
            "label": "longitude",
            "offset": 0,
            "slot": "5",
            "type": "t_string_storage"
          },
          {
            "astId": 5226,
            "contract": "contracts/nftMaster.sol:LandNFT",
            "label": "imageURI",
            "offset": 0,
            "slot": "6",
            "type": "t_string_storage"
          }
        ],
        "numberOfBytes": "224"
      },
      "t_uint256": {
        "encoding": "inplace",
        "label": "uint256",
        "numberOfBytes": "32"
      }
    }
  }
}