{
  "address": "0x1c62B148b3fF74655503568f7321420a12c85772",
  "abi": [
    {
      "inputs": [
        {
          "internalType": "address",
          "name": "",
          "type": "address"
        }
      ],
      "name": "NFTDetails",
      "outputs": [
        {
          "internalType": "uint256",
          "name": "",
          "type": "uint256"
        }
      ],
      "stateMutability": "view",
      "type": "function"
    },
    {
      "inputs": [
        {
          "internalType": "address",
          "name": "",
          "type": "address"
        }
      ],
      "name": "NFT_yes_or_no",
      "outputs": [
        {
          "internalType": "bool",
          "name": "",
          "type": "bool"
        }
      ],
      "stateMutability": "view",
      "type": "function"
    },
    {
      "inputs": [
        {
          "internalType": "address",
          "name": "user",
          "type": "address"
        }
      ],
      "name": "NFT_yes_or_noStatus",
      "outputs": [
        {
          "internalType": "bool",
          "name": "",
          "type": "bool"
        }
      ],
      "stateMutability": "view",
      "type": "function"
    },
    {
      "inputs": [
        {
          "internalType": "bool",
          "name": "_status",
          "type": "bool"
        },
        {
          "internalType": "address",
          "name": "user",
          "type": "address"
        },
        {
          "internalType": "uint256",
          "name": "_rejectedValue",
          "type": "uint256"
        }
      ],
      "name": "getProposalStateAfterRejection",
      "outputs": [],
      "stateMutability": "nonpayable",
      "type": "function"
    },
    {
      "inputs": [],
      "name": "getUserInfo",
      "outputs": [
        {
          "internalType": "uint256",
          "name": "",
          "type": "uint256"
        }
      ],
      "stateMutability": "view",
      "type": "function"
    },
    {
      "inputs": [
        {
          "internalType": "address",
          "name": "user",
          "type": "address"
        }
      ],
      "name": "passProposalState",
      "outputs": [
        {
          "internalType": "bool",
          "name": "answer",
          "type": "bool"
        }
      ],
      "stateMutability": "view",
      "type": "function"
    },
    {
      "inputs": [
        {
          "internalType": "address",
          "name": "user",
          "type": "address"
        }
      ],
      "name": "passProposalValue",
      "outputs": [
        {
          "internalType": "uint256",
          "name": "",
          "type": "uint256"
        }
      ],
      "stateMutability": "view",
      "type": "function"
    },
    {
      "inputs": [
        {
          "internalType": "uint256",
          "name": "choice",
          "type": "uint256"
        }
      ],
      "name": "putUserInfo",
      "outputs": [],
      "stateMutability": "nonpayable",
      "type": "function"
    },
    {
      "inputs": [
        {
          "internalType": "address",
          "name": "",
          "type": "address"
        }
      ],
      "name": "rejectedClaim",
      "outputs": [
        {
          "internalType": "bool",
          "name": "",
          "type": "bool"
        }
      ],
      "stateMutability": "view",
      "type": "function"
    },
    {
      "inputs": [
        {
          "internalType": "address",
          "name": "",
          "type": "address"
        }
      ],
      "name": "rejectedValue",
      "outputs": [
        {
          "internalType": "uint256",
          "name": "",
          "type": "uint256"
        }
      ],
      "stateMutability": "view",
      "type": "function"
    },
    {
      "inputs": [
        {
          "internalType": "address",
          "name": "user",
          "type": "address"
        }
      ],
      "name": "setAddressHasNFT",
      "outputs": [],
      "stateMutability": "nonpayable",
      "type": "function"
    },
    {
      "inputs": [
        {
          "internalType": "address",
          "name": "",
          "type": "address"
        }
      ],
      "name": "userInsurance",
      "outputs": [
        {
          "internalType": "uint256",
          "name": "",
          "type": "uint256"
        }
      ],
      "stateMutability": "view",
      "type": "function"
    }
  ],
  "transactionHash": "0x01146f108e488bd8292702e590bf20e390bb8ae5edc651476f971bbb4ab6bc97",
  "args": [],
  "numDeployments": 2,
  "solcInputHash": "887bab5739e2e5aaa2201516dbc38fbc",
  "bytecode": "0x6080604052348015600f57600080fd5b506108c08061001f6000396000f3fe608060405234801561001057600080fd5b50600436106100b45760003560e01c80638e3c0143116100715780638e3c01431461019f578063933fc618146101cf57806398cc9eba146101ff578063a694c98d1461022f578063c874ff461461024b578063ed2733561461027b576100b4565b80634b7b86c5146100b95780635483ecad146100e9578063555e34cd146101195780635d8d1585146101355780636db631d9146101535780637a03ca371461016f575b600080fd5b6100d360048036038101906100ce919061069e565b6102ab565b6040516100e091906106e6565b60405180910390f35b61010360048036038101906100fe919061069e565b610300565b60405161011091906106e6565b60405180910390f35b610133600480360381019061012e9190610737565b610320565b005b61013d610367565b60405161014a9190610773565b60405180910390f35b61016d6004803603810190610168919061069e565b6103ae565b005b6101896004803603810190610184919061069e565b610494565b6040516101969190610773565b60405180910390f35b6101b960048036038101906101b4919061069e565b6104ac565b6040516101c691906106e6565b60405180910390f35b6101e960048036038101906101e4919061069e565b6104cc565b6040516101f69190610773565b60405180910390f35b6102196004803603810190610214919061069e565b6104e4565b6040516102269190610773565b60405180910390f35b610249600480360381019061024491906107ba565b6104fc565b005b6102656004803603810190610260919061069e565b61059c565b60405161027291906106e6565b60405180910390f35b6102956004803603810190610290919061069e565b6105f2565b6040516102a29190610773565b60405180910390f35b60008060008373ffffffffffffffffffffffffffffffffffffffff1673ffffffffffffffffffffffffffffffffffffffff16815260200190815260200160002060009054906101000a900460ff169050919050565b60036020528060005260406000206000915054906101000a900460ff1681565b80600160003373ffffffffffffffffffffffffffffffffffffffff1673ffffffffffffffffffffffffffffffffffffffff1681526020019081526020016000208190555050565b6000600160003373ffffffffffffffffffffffffffffffffffffffff1673ffffffffffffffffffffffffffffffffffffffff16815260200190815260200160002054905090565b6000808273ffffffffffffffffffffffffffffffffffffffff1673ffffffffffffffffffffffffffffffffffffffff16815260200190815260200160002060009054906101000a900460ff161561043a576040517f08c379a00000000000000000000000000000000000000000000000000000000081526004016104319061086a565b60405180910390fd5b60016000808373ffffffffffffffffffffffffffffffffffffffff1673ffffffffffffffffffffffffffffffffffffffff16815260200190815260200160002060006101000a81548160ff02191690831515021790555050565b60026020528060005260406000206000915090505481565b60006020528060005260406000206000915054906101000a900460ff1681565b60016020528060005260406000206000915090505481565b60046020528060005260406000206000915090505481565b80600460008473ffffffffffffffffffffffffffffffffffffffff1673ffffffffffffffffffffffffffffffffffffffff1681526020019081526020016000208190555082600360008473ffffffffffffffffffffffffffffffffffffffff1673ffffffffffffffffffffffffffffffffffffffff16815260200190815260200160002060006101000a81548160ff021916908315150217905550505050565b6000600360008373ffffffffffffffffffffffffffffffffffffffff1673ffffffffffffffffffffffffffffffffffffffff16815260200190815260200160002060009054906101000a900460ff169050919050565b6000600460008373ffffffffffffffffffffffffffffffffffffffff1673ffffffffffffffffffffffffffffffffffffffff168152602001908152602001600020549050919050565b600080fd5b600073ffffffffffffffffffffffffffffffffffffffff82169050919050565b600061066b82610640565b9050919050565b61067b81610660565b811461068657600080fd5b50565b60008135905061069881610672565b92915050565b6000602082840312156106b4576106b361063b565b5b60006106c284828501610689565b91505092915050565b60008115159050919050565b6106e0816106cb565b82525050565b60006020820190506106fb60008301846106d7565b92915050565b6000819050919050565b61071481610701565b811461071f57600080fd5b50565b6000813590506107318161070b565b92915050565b60006020828403121561074d5761074c61063b565b5b600061075b84828501610722565b91505092915050565b61076d81610701565b82525050565b60006020820190506107886000830184610764565b92915050565b610797816106cb565b81146107a257600080fd5b50565b6000813590506107b48161078e565b92915050565b6000806000606084860312156107d3576107d261063b565b5b60006107e1868287016107a5565b93505060206107f286828701610689565b925050604061080386828701610722565b9150509250925092565b600082825260208201905092915050565b7f616c726561647920686173206e66740000000000000000000000000000000000600082015250565b6000610854600f8361080d565b915061085f8261081e565b602082019050919050565b6000602082019050818103600083015261088381610847565b905091905056fea2646970667358221220192aa153fd89c42122885ed04d88075a9dfba0536c0900bbf3b320f55de9e1e964736f6c634300081c0033",
  "devdoc": {
    "kind": "dev",
    "methods": {},
    "version": 1
  },
  "userdoc": {
    "kind": "user",
    "methods": {},
    "version": 1
  },
  "storageLayout": {
    "storage": [
      {
        "astId": 5074,
        "contract": "contracts/master.sol:masterContract",
        "label": "NFT_yes_or_no",
        "offset": 0,
        "slot": "0",
        "type": "t_mapping(t_address,t_bool)"
      },
      {
        "astId": 5078,
        "contract": "contracts/master.sol:masterContract",
        "label": "userInsurance",
        "offset": 0,
        "slot": "1",
        "type": "t_mapping(t_address,t_uint256)"
      },
      {
        "astId": 5082,
        "contract": "contracts/master.sol:masterContract",
        "label": "NFTDetails",
        "offset": 0,
        "slot": "2",
        "type": "t_mapping(t_address,t_uint256)"
      },
      {
        "astId": 5086,
        "contract": "contracts/master.sol:masterContract",
        "label": "rejectedClaim",
        "offset": 0,
        "slot": "3",
        "type": "t_mapping(t_address,t_bool)"
      },
      {
        "astId": 5090,
        "contract": "contracts/master.sol:masterContract",
        "label": "rejectedValue",
        "offset": 0,
        "slot": "4",
        "type": "t_mapping(t_address,t_uint256)"
      }
    ],
    "types": {
      "t_address": {
        "encoding": "inplace",
        "label": "address",
        "numberOfBytes": "20"
      },
      "t_bool": {
        "encoding": "inplace",
        "label": "bool",
        "numberOfBytes": "1"
      },
      "t_mapping(t_address,t_bool)": {
        "encoding": "mapping",
        "key": "t_address",
        "label": "mapping(address => bool)",
        "numberOfBytes": "32",
        "value": "t_bool"
      },
      "t_mapping(t_address,t_uint256)": {
        "encoding": "mapping",
        "key": "t_address",
        "label": "mapping(address => uint256)",
        "numberOfBytes": "32",
        "value": "t_uint256"
      },
      "t_uint256": {
        "encoding": "inplace",
        "label": "uint256",
        "numberOfBytes": "32"
      }
    }
  }
}